:020000040800F2
:10000000E00600206102000899250008752100081B
:100010009525000825140008B125000800000000FF
:10002000000000000000000000000000A5250008FE
:1000300029140008000000009D250008A9250008DB
:100040007B0200087B0200087B0200087B0200089C
:100050007B0200087B0200087B0200087B0200088C
:100060007B0200087B0200087B0200087B0200087C
:100070007B0200087B0200087B0200087B0200086C
:100080007B0200087B0200087B0200087B0200085C
:100090007B0200087B0200087B0200087B0200084C
:1000A0007B0200087B0200087B0200087B0200083C
:1000B0007B0200087B0200087B0200087B0200082C
:1000C0007B0200087B0200087B0200087B0200081C
:1000D0007B0200087B0200087B0200087B0200080C
:1000E0007B0200087B0200087B02000800F002F897
:1000F00000F0A6F814A696E8000CB244B344DA4522
:1001000001D100F09DF8BAE80F000FA696E8300084
:10011000A5EB040504EB0607AAEB0704A7F101070A
:100120004FEA15154FEA3414A4F10104AC4201D38F
:1001300000F086F813F0010F18BFFB1A43F001031B
:1001400000F001F8DBE718474031000060310000A3
:10015000103A24BF78C878C1FAD8520724BF30C8F3
:1001600030C144BF04680C60704700007047000055
:100170000023002400250026103A28BF78C1FBD8B0
:10018000520728BF30C148BF0B6070476E2900F08E
:100190008181702900F0C382662902F0DD8765291C
:1001A00002F0DA87672902F0D787612902F0D68743
:1001B00003681B0A28BF41F08001692900F02E81E5
:1001C000642900F02B81752900F028816F2900F047
:1001D0005182782900F08F82E92900F0EB81E4292F
:1001E00000F0E881F52900F0E581EF2900F04E826A
:1001F000F82900F08E820368DB0928BF41F08001F6
:10020000632900F08F87732900F09487E32900F0B9
:100210009F87F32900F0A487002070471FB500F0E6
:10022000F5FF04000020002102F080FF401C606008
:100230000020002102F064FFE0601FBD10B510BD7A
:1002400000F0B6FF1146FFF7E9FF02F0EBFA01F00C
:1002500093F803B4FFF7F2FF03BC01F0DBF80000F2
:100260000948804709480047FEE7FEE7FEE7FEE74A
:10027000FEE7FEE7FEE7FEE7FEE7FEE70448054986
:10028000054A064B70470000AD250008ED00000848
:10029000E0000020E0060020E0020020E002002054
:1002A0001CB50C46064B7B4469460090204600F086
:1002B0000AF904460020694600F018F920461CBDE2
:1002C0004302000010B5431C02E010F8011B71B19D
:1002D0008107FAD14FF0013202C88C1A8C4314EA1C
:1002E000C211F9D0C01A0A0603D0C01E10BDC01A30
:1002F00010BD0A0401D0801E10BD0902FCD0401EB2
:1003000010BD4FF0000200B51346944696462039C2
:1003100022BFA0E80C50A0E80C50B1F12001BFF4BE
:10032000F7AF090728BFA0E80C5048BF0CC05DF824
:1003300004EB890028BF40F8042B08BF704748BF72
:1003400020F8022B11F0804F18BF00F8012B7047E6
:1003500070477047704770B5044685690068C106EC
:1003600001D5302600E02026C00707D070BDD4E9B3
:10037000012130469047206A401C20626D1EF6D550
:1003800070BD70B5044685690078C00707D170BD9F
:10039000D4E9012120209047206A401C20626D1E74
:1003A000F6D570BD09684A0501D540B27047C90548
:1003B000FCD500B2704709684A0501D5C0B2704744
:1003C000C905FCD580B2704770B50C460546012AB8
:1003D00005D02878800600D5EA69002302E00123D1
:1003E00005E05B1C934202D2E05C0028F9D1A869C9
:1003F000E618C01AA861286A184428622846FFF740
:10040000AAFF04E0D5E9012114F8010B9047B4429A
:10041000F8D32846FFF7B5FF70BD00002DE9F04185
:100420000646002410687529314616A510D0FFF73E
:10043000B9FF002802DA404213A507E031688A07B5
:1004400001D512A502E0490704D511A5012401E058
:10045000FFF7B1FF00210A2206F1240709E0B0FBF3
:10046000F2FCB0FBF2F302FB1C003030785418466B
:10047000491C0028F3D123462A463046BDE8F04106
:1004800000F061BA000000002D0000002B00000009
:100490002000000011680268006A530501D5087049
:1004A0000AE0D30501D5088006E0130603D5C2177C
:1004B000C1E9000200E008600120704701694A1CA0
:1004C00002610878704700B58FB0CDE90131002195
:1004D000059105497944CDE903101146684600F0BD
:1004E00029F90FB000BD0000E5FFFFFF0A6802F820
:1004F000010B0A60704700002DE9FF5F15468A4630
:100500000446DFF8AC80F8440027D8E900103E46E6
:10051000CDE9001010E03AF816106A4602A800F083
:1005200023FE411C07D02178890603D5E2693918DA
:1005300091420DD80744761C2078800602D5E069E8
:10054000B84205DDAE42E6DB3AF816000028E2D1FB
:10055000A069C01BA0612046FFF7FDFED8E900108E
:10056000CDE90010002017E03AF818106A4602A8FA
:1005700000F0FAFDB0F1FF3F81460BD000250DF1F0
:10058000080B05E0D4E901211BF8050090476D1C1C
:100590004D45F7D308F10100B0428046E4DB206A04
:1005A000384420622046FFF7ECFEBDE8FF9F0000C4
:1005B000562C00002DE9F0418046D21D22F00702A2
:1005C0000025D2E90002F52915A614D0011E72F10A
:1005D000000106DA0023D0EB030063EB020211A650
:1005E00008E0D8F800108B0701D50FA602E04907F4
:1005F00001D50EA601251146002408F1240704E0C8
:1006000000F05CF930323A55641C50EA0102F7D12F
:100610002B46324621464046BDE8F04100F093B9F2
:10062000000000002D0000002B0000002000000052
:1006300030B4002100F1240408E002F00705D208DC
:10064000303542EA4372DB086554491C52EA03051F
:10065000F3D10468002310A2250708D504F0200474
:100660000C4304D0C46901230CA2641EC46130BCD5
:1006700000F069B910B5044621461068FFF79BFEEB
:1006800002462046BDE810400023D1E7D21D22F0EB
:100690000701D1E90023CBE7000000003000000093
:1006A000F0B40D460188090502D5214C7C4402E0D6
:1006B0001F4C7C440E34002100F1240608E002F0B7
:1006C0000F071209E75D42EA03721B097754491CC0
:1006D00052EA0307F3D102780023120704D5702DE4
:1006E00006D009B1022311342246F0BC00F02BB928
:1006F00001231034F8E770B504460D462146106812
:10070000FFF759FE024629462046BDE87040002307
:10071000C6E7D21D22F00703D3E90023C0E7036830
:10072000126843F0200303600823C3610023B7E786
:10073000B82A00002DE9F05F894604464FF0000A10
:10074000DFF874B1FB44C0F820A02046E168884778
:10075000002874D0252806D0D4E901219047206ACA
:10076000401C2062F1E700265F462046E16888478A
:100770002028054607DB312D05D2781910F8200C0A
:1007800008B10643F1E7B00701D526F00406C4F826
:100790001CA00027C4F818A02A2D09D0284602F072
:1007A000A7FC38B304EB8708303DC8F8185019E0AF
:1007B00059F8041B204604EB87029161E1688847E1
:1007C000012F054618D1E069002820DA26F020061E
:1007D0001DE0D8F8180000EB800005EB4000303831
:1007E000C8F818002046E1688847054602F080FCFA
:1007F0000028EED1012F0AD02E2D08D12046E16825
:1008000088477F1C0546022F46F02006C4DBA069FE
:10081000002803DA404246F00106A061F00701D04B
:1008200026F010066C2D0BD0682D09D04C2D39D038
:100830006A2D35D0742D35D07A2D33D016E038E0BE
:10084000E1682F4620468847B842054609D16C2FFB
:1008500026D04FF48060E16806432046884705466D
:1008600004E06C2F1AD04FF4807006430DB3A5F14D
:100870004100192802D8203546F400664A46294628
:10088000204626604E46FFF781FC80B101280BD040
:10089000F61D26F0070000F1080956E74020E4E7BE
:1008A0008020D8E70020D6E706F104094DE7284666
:1008B00052E7206ABDE8F09F482A000030B5B0F149
:1008C0000A0271F100034FEA900E4EEA817EB0EB0E
:1008D0000E0061EB91014FEA101E4EEA017E10EB13
:1008E0000E0041EB11114FEA102E4EEA016E10EB93
:1008F0000E0041EB11214FEA104E4EEA014E10EB73
:100900000E0041EB1141401841F100014FEAD000C7
:1009100040EA41704FEAD1014FEA810444EA907401
:1009200010EB800544EB01046D1944EB0404521BE9
:10093000A3414FF0000348BF0A3200D530BD401C30
:1009400041F1000130BD2DE9F0470D469946924630
:10095000044600F124080168880604D5E06921F006
:100960001001216000E00120A84201DD471B00E0EA
:100970000027A1697A1902EB0900081AA061207802
:10098000C00602D42046FFF7E6FC002608E0D4E9C2
:1009900001211AF806009047206A401C761C20624C
:1009A0004E45F4DB2078C0060AD52046FFF7D3FC7D
:1009B00006E0D4E9012130209047206A401C2062E3
:1009C000381EA7F10107F4DC07E0D4E9012118F88B
:1009D00005009047206A401C2062281EA5F10105F1
:1009E000F3DC2046FFF7CDFC2078000602D502207C
:1009F000BDE8F0870120FBE72DE9FF4F0C461E46BE
:100A00004FF0FF378BB0D2E90001DDF860800A902B
:100A10008A46C1F30A5505B93D46002108464FF004
:100A20000000BAF1000F00F4400005DA00EB80008E
:100A30004FF4400101EA50004FEA9059B9F1010F1B
:100A400000DDB9460A9850EA4A000ED044F610502C
:100A5000A5F2FF3545432F14B8F1000F1ED07542A3
:100A6000291E1EDDC9F100021CE0B8F1010F4FF094
:100A7000000001D0302103E0F24305E02154401C86
:100A8000B042FBDB30460022002121540B99C1F813
:100A90000880C1E900200FB0BDE8F08FBD1B6D1CC0
:100AA000DEE74A4600DA694206A800F0F3FB06AB2F
:100AB00093E8070003AB83E8070050460A9901F06A
:100AC0003BFF8DE80700A0F500501F380090039809
:100AD000002D0ADD42F21F014A460844002303A903
:100AE0000390684602F0A4F909E0A0F500504A46D8
:100AF0001F38002303A90390684602F0AEF98DE881
:100B000007000004000C03D04FF0FF30410800E064
:100B10001046B8F1000F03D00022009215461EE0E7
:100B2000751E05D4FFF7CAFE303262556D1EF9D529
:100B3000B3460122084302D000227F1C04E0207843
:100B4000302801D100227F1E002A099784D01DE0A1
:100B5000112D07DAFFF7B2FE303262556D1C50EAF4
:100B60000102F5D1084302D00098C8B10EE000217F
:100B7000681E05E0235C625C63542254401E491CDD
:100B80008142F7DBAB46A81B401E0990002004F809
:100B90000B000B98099AC0F80880C0E9002B7AE78F
:100BA00011264FF0000857E72DE9F04F884604461C
:100BB000D21D22F0070191B0D1E90001CDE90A016F
:100BC00002F082FA02460B98C00F01D02D2007E0F8
:100BD0002068810701D52B2002E0202101EAC00016
:100BE000032A099001D0072A05DB03464146204627
:100BF00000F010FB0BE12078800601D5E06900E0F1
:100C00000620B8F1650F814606D0B8F1660F18D0FE
:100C1000B8F1670F70D131E00020B9F1110F0090E9
:100C200001DB112301E009F101030AAA01A90CA8C3
:100C3000FFF7E2FEDDE90C70002609F101058346AD
:100C400047E001204B4600904FF000470AAA01A957
:100C50000CA8FFF7D1FEDDE90DB00C995D4600262A
:100C600010B909F101000D18B9EB050003D4C0F16A
:100C7000FF3609F10105A5EB09002BE0B9F1010FE1
:100C800001DA4FF001090020B9F1110F0090484638
:100C900001DD112300E003460AAA01A90CA8FFF711
:100CA000ABFEDDE90C704D46002683462078000738
:100CB0000AD4AB4500DA5D4601A8012D04DD4119D7
:100CC00011F8011C302907D04F4502DA17F1040F43
:100CD00004DA012082460FE06D1EEEE7002F02DCF1
:100CE000ED1B3E4403E0781CA84200DD7D1CB81BD0
:100CF00000F1010A4FF000472078000703D4AA450D
:100D000001DB4FF0FF3A0021B7F1004F0DF143082E
:100D10008DF8431024D002202B23002F01DA7F42CC
:100D20002D230A21021EA0F1010000DC5FB197FB18
:100D3000F1FC97FBF1F201FB1C7C17460CF1300C27
:100D400008F801CDEEE7A8F101000370218809053C
:100D500001D5452100E06521A0F1010800F8011C42
:100D600009980FA9A1EB0807FF1D00B10120411947
:100D700001EBEA70A1693844081A401EA06120788E
:100D8000C00602D42046FFF7E6FA099828B1D4E954
:100D900001219047206A401C20622078C00622D59D
:100DA0002046FFF7D8FA1EE0002E04DBB34502DD33
:100DB00001A8805D00E03020D4E901219047206A3D
:100DC000401C2062761CAAF101005FEA000A0AD1E9
:100DD00000F01CFAC0680168405CD4E9012190472A
:100DE000206A401C2062281EA5F10105DCDC07E01A
:100DF000D4E9012118F8010B9047206A401C2062B9
:100E0000381EA7F10107F3DC2046FFF7BAFA0320EA
:100E100011B041E62DE9F04F04460D46D21D22F0F7
:100E2000070089B0D0E900974846394602F04CF9EE
:100E30000246F80F01D02D2307E02068810701D575
:100E40002B2302E0202101EAC0038DF820300BB1F2
:100E5000012000E00020032A824601D0072A04DB9B
:100E60002946204600F0D6F93FE12078800601D4DB
:100E70000D2500E0E569C7F30A560D2D49DA00217A
:100E80004FEA175B08464FF00000002F00F44000C7
:100E900007DA00EB80004FF4400100EBD07001EA6C
:100EA00060008115012901DD4FF0FF3100224FEA7A
:100EB000850CBCF1180F06D31346ACF118004FF0A7
:100EC0008052C24003E04FF4801323FA0CF30CF17C
:100ED0000C0CBCF1200F04D3ACF1200C09FA0CF07F
:100EE00001E007FA0CF000294FF0004801DD18B9C5
:100EF0000FE00ED140450CD319EB02095F4121B937
:100F0000404502D19F4329EA0209BBEB175F00D09D
:100F1000761C2088000502D57B48784402E07A4898
:100F20007844193808AA302302F80A30037C0AF101
:100F30000101002E0AF1020A53546A4602DC4FF006
:100F4000300101E04FF031014FF001088DF8001041
:100F500002D0A6F2FF3603E059EA470100D06B4EFB
:100F6000002D02DC2178090704D54FF002082E215C
:100F70008DF80110C44600210BE0C7F303433F0185
:100F8000C35C491C6D1E02F80830052908F10108F0
:100F900001DA002DF1DC00210CE000EB1973491C93
:100FA0001B786D1E082902F808304FEA091908F16C
:100FB000010801DA002DF0DC21688B0602D516E06D
:100FC000A8F10108E04505DD02EB080313F8013C38
:100FD000302BF5D0B8F1000F09DD02EB080313F850
:100FE000013C2E2B03D1090701D4A8F10108002DE3
:100FF00005DD3E2102F808106D1E08F10108407C55
:10100000002E02F8080008F1010804DA2D207642CB
:1010100002F8080002E02B2002F808000A214FF431
:101020007A70864208F101080BDB96FBF0F330334F
:1010300002F8083096FBF0F308F1010800FB136694
:1010400001E0642E0CDB642096FBF0F3303302F8F1
:10105000083096FBF0F308F1010800FB136601E08D
:101060000A2E06DB96FBF1F0303002F8080008F19A
:10107000010896FBF1F001FB1060303002F8080027
:10108000A16908F1010808EB050202EB0A00081A41
:10109000A0612078C00602D42046FFF75CF9216ADF
:1010A00008AE01EB0A00206204E0D4E9012116F841
:1010B000010B9047BAF1010AF7D22078C00602D599
:1010C0002046FFF748F96E4609E016F8010B3E2866
:1010D0000FD0D4E901219047206A401C2062B8F16A
:1010E0000108F2D22046FFF74CF909B00320BDE811
:1010F000F08F206A2844206203E0D4E901213020E7
:1011000090476D1EEBD3F8E79622000002FCFFFF2C
:1011100010B5436913B1AFF3008001E0FFF754F954
:10112000012010BD127800F124010A7000224A70DB
:101130000122EDE711684FF0FF32E9E710B543698E
:1011400013B1AFF3008001E0FFF7D6F9012010BD25
:10115000128800F1240182840022C2840122EDE77A
:1011600011684FF0FF32E9E72DE9F04116460C46D1
:10117000054600F043F8036893F80101012807D001
:10118000FF2C12D8185D80B101202C70BDE8F081D1
:10119000D3F807013246214603F20713C718284641
:1011A000BC46BDE8F041002360474FF0FF30EDE75B
:1011B000754600F0EBF8AE4605006946534620F050
:1011C0000700854618B020B5FFF758F8BDE8204065
:1011D0004FF000064FF000074FF000084FF0000BF3
:1011E000AC46ACE8C009ACE8C009ACE8C009ACE862
:1011F000C00921F007018D467047000010B500F0CE
:1012000005F8001D10BD00BF251F000000487047F5
:10121000300000202DE9F0411F46044603260168F6
:10122000072A01F4006004DB08B116A505E016A545
:1012300003E008B115A500E015A521F0100020601D
:10124000A069C01EA0610FB1401EA0612046FFF73B
:1012500082F84FB1D4E9012138469047206A401CFA
:101260002062C01C206206E0206AFAE7D4E901216E
:1012700015F8010B9047761EF8D22046FFF781F84B
:10128000BDE8F0814E414E006E616E00494E460051
:10129000696E66002DE9F047814616468AB03548EA
:1012A00078440DC88DE80D0032487844801C03ACAA
:1012B0000DC884E80D0041F69B300844372190FBAF
:1012C000F1F290FBF1F5A5F1800501FB12041B3C46
:1012D00002D56442012000E00020DFF898A080469B
:1012E0000027FA44AAF1BE0A0EE0E0070AD032460F
:1012F000684607EB470101230AEB810101F0ADFDD0
:101300008DE8070064107F1C002CEED1194F7F443C
:10131000AE3F19E0E80715D007EB04100DF1180AED
:1013200090E80E008AE80E00C068F04201D19819DA
:1013300008903246012306A903A801F08EFD03ABF5
:1013400083E807006D10641C002DE3D14FF001030A
:1013500032466946B8F1000F03A802D001F068FDDB
:1013600001E001F07AFDC9E90001C9F808200AB0DE
:10137000BDE8F087A01F000010B50446AFF3008061
:101380002046BDE81040FEF764BF000000487047EB
:10139000100000204FF0013C50F8042B51F8043BA2
:1013A0009A4221D1A2EB0C03934313EACC1317D139
:1013B00050F8042B51F8043B9A4215D1A2EB0C03D0
:1013C000934313EACC130BD150F8042B51F8043B90
:1013D0009A4209D1A2EB0C03934313EACC13DBD05E
:1013E0004FF00000704700BFD01A01BAB1FA81F186
:1013F00001F0180122FA01F0CB40DBB2C0B2C01AF2
:10140000C1F120012CFA01F3D11A914311EAC31161
:10141000E6D1704701491820ABBEFEE72600020066
:1014200070470000FEE7000070470000B0B50446BA
:1014300000F018F9054640F20000C2F20000007802
:10144000611C18BF044400BF00F00CF9401BA0420F
:10145000FAD3B0BD2DE9F04F82B00E68002E00F037
:10146000FD8041F20042C4F20102042340F2004E2A
:10147000904208BF03234FF6FF7CC4F2010E009395
:1014800000240123C1F2100C4FF0000A4FF00009B4
:1014900044E000BF012704F00C030F229A402BEA1E
:1014A000020207FA03F34FEA9A051A4346F8252089
:1014B0004E6840F20C45F202DEF8082054BF22EAE2
:1014C000080242EA0802C4F20105CEF808202A68A0
:1014D000B30254BF22EA080242EA08022A60B303B8
:1014E000DEF8042054BF22EA080242EA0802F303AD
:1014F000CEF80420DEF800204FF0010354BF22EAAA
:10150000080242EA0802CEF800200E680AF1010A39
:1015100036FA0AF204F1040400F0A08003FA0AFB90
:1015200016EA0B08F1D04E68664511DC122E55D82C
:10153000DFE806F0340A4448545454545454545484
:1015400054545454544C5000D1F80C9046E000BF11
:101550004FF6FF72C1F2210296420FDC0022C1F267
:10156000110296421AD00022C1F21202964215D000
:101570000022C1F22102964210D02FE00022C1F2D7
:10158000220296420AD00022C1F23102964205D0D0
:101590000022C1F23202964220D100BF8A684AB1CD
:1015A000012A14BFC0F814B0C0F810B04FF00809F9
:1015B00014E000BF4FF0040910E000BFCA6802F158
:1015C00008090BE04FF0000908E000BFCA6802F10B
:1015D000040903E0CA6802F10C0900BF224606466E
:1015E000B8F5807F24BF203A043637680F25954030
:1015F00027EA050509FA02F22A433260CA79D206BF
:101600007FF583AF41F21803C4F202031A68AEF506
:101610007E7642F001021A601A6802F0010201921D
:10162000019A2AF0030256F802B040F60002C4F212
:101630000102904210D040F60042C4F201029042F2
:101640003FF428AF41F20002C4F20102009F904231
:1016500008BF02271FE700BF00271CE702B0BDE854
:10166000F08F000040F2DC00C2F20000006870471A
:10167000002804BF01207047F0B581B0044690F8FF
:101680003D0028B9002084F83C00204600F090F985
:10169000242084F83D002068016821F001010160E8
:1016A000016841F400410160016821F400410160DA
:1016B00000F036FB636848F2A16CC0F2010C40F602
:1016C0000011C0F23D0163453CBF48F28041C0F2C9
:1016D0001E01884202D2012001B0F0BD4DF68361A7
:1016E000C4F21B31A0FB01122168970CD1F804E071
:1016F0004FF496762EF03F0545EA92454D607743CC
:1017000048F638160D6AC0F24106A7FB067625F0AA
:101710003F07634538BF960C721C3A430A62CA6998
:1017200048F2A0664CF6FF77C0F20106B34222EA07
:1017300007020BD801385B00B0FBF3F001306FF308
:101740001F30042898BF04201BE000BFA7680138A1
:1017500057B119277B43B0FBF3F001306FF31F3013
:1017600070B100F5804007E003EB4303B0FBF3F0FA
:1017700001306FF31F3018B100F5004001E000BFE9
:1017800001201043C8610868D4E9072320F0C00095
:10179000104318430860886848F2FF3204F10C07D0
:1017A00090438CCF18431043A6698860C86820F026
:1017B000FF0038433043C860086840F0010008600B
:1017C00000202021206484F83D10206384F83E002E
:1017D00001B0F0BD2DE9F04383B01E46174689469F
:1017E0000446FFF73FFF94F83D10202924D1054619
:1017F000206800BF816989071AD5FFF733FF411BB5
:1018000020681A29F6D381698907F3D500202021A1
:10181000206384F83D1084F83E00216C41F02001E3
:10182000216484F83C00022003B0BDE8F08300BFCF
:1018300094F83C10012903D1022003B0BDE8F083E5
:10184000012184F83C100168C90703D1016841F007
:1018500001010160016840F2020821F400610160A9
:10186000212184F83D10102184F83E1000212164CC
:1018700067626685618DC0F201082185A8F10211B9
:10188000E162E16A0A9E11F5803F18BF01291DD16E
:10189000016841F48071016020464FF0011100227F
:1018A0003346009500F0C6FC50B120680068C005C2
:1018B00044BF4FF400702064012003B0BDE8F08302
:1018C0002069B0F5804F07D1FE2015E00829DFD050
:1018D000216B1229DCD0DFE7062000EAD91021684D
:1018E000F030086108F10601204632462B4600F030
:1018F00087FD0028E0D1FF20216800EA0900086187
:101900002046414632462B4600F07AFD0028D3D1CE
:10191000002002902068416902918069029002983B
:1019200006E000BF204631462A4600F025FC18BBE1
:10193000208D68B3204631462A4600F0CDFDD8B947
:10194000606A2168024612F8013B0B616262628D97
:10195000013A6285228D531E23854F697F07E1D5A9
:101960001B04DFD0437802300B616062608D013868
:101970006085901E2085D5E7206C04289CD12068C6
:10198000016841F400710160012003B0BDE8F083FB
:101990002068016841F400710160202084F83D0056
:1019A000002084F83E0084F83C0003B0BDE8F083DA
:1019B00010B586B045F200410068C4F20001002273
:1019C0008842049202D006B010BD00BF41F2180454
:1019D000C4F20204206840F008002060206800F093
:1019E000080001900198C02002901220039003206B
:1019F000059001F5384002A9FFF72CFD606840F41E
:101A000000106060606800F400100190019806B05A
:101A100010BD000040F2000040F2DC01C2F2000004
:101A2000C2F2000100780A681044086070470000A4
:101A300080B542F20000C4F20200016841F01001DA
:101A40000160032000F07AF80F2000F005F800F0A4
:101A500027F8002080BD000070B540F20006C2F2F9
:101A6000000640F208013278C2F200014FF47A73A6
:101A70000968B3FBF2F20446B1FBF2F1084600F04C
:101A800063FB0F2C4FF0010508D838B94FF0FF3039
:101A900021460022002500F025F87460284670BD1C
:101AA00082B041F21800C4F202000168022241F043
:101AB00001010160016801F0010101910199416892
:101AC00041F080514160406800F0805000900098E3
:101AD0000420C4F20100016862F31A61016002B0DF
:101AE0007047000010B54EF60C5CCEF2000CDCF82E
:101AF0000030C3F3022E8EF00704042C28BF042408
:101B0000BEF103034FF0FF3E0EFA04F438BF00238A
:101B1000A14399400EFA03F39A43114300F00F02D8
:101B200000F160430901043A03F56443624400286C
:101B300048BF02F10C03197010BD00004EF60C51A5
:101B4000CEF200010A684FF6FF031A4060F30A2242
:101B500042F0806040F0FD7008607047002804BFCC
:101B6000012070472DE9F04381B042F20008C4F231
:101B700002080446D8F800000D4600F0070088422D
:101B80000CD2D8F8000020F007002843C8F8000065
:101B9000D8F8000000F00700A8426CD1206841F29C
:101BA00004098107C4F2020917D5410705D5D9F800
:101BB000001041F4E061C9F80010010705D5D9F81B
:101BC000001041F46051C9F80010D9F80010A26863
:101BD00021F0F0011143C9F80010C00742D1D8F834
:101BE000000000F00700A8420CD9D8F8000020F04F
:101BF00007002843C8F80000D8F8000000F00700EC
:101C0000A84238D12068410707D5D9F80010E2680A
:101C100021F4E0611143C9F80010000708D5D9F894
:101C20000000216920F4605040EAC100C9F80000BA
:101C3000D9F8002002F00C00082841F20020C0F280
:101C40007A0051D143F27623C2F38341C0F60003F8
:101C5000595CD2033CD440F60010C0F23D0048432A
:101C600042E000BF606802280AD001282AD159F852
:101C7000041C890308D4012001B0BDE8F08300BF33
:101C800059F8041C8901F6D5D9F8001021F0030198
:101C90000843C9F80000FFF7E5FC064641F2883723
:101CA000D9F80000616800F00C00B0EB810F96D00D
:101CB000FFF7D8FC801BB842F2D9032001B0BDE881
:101CC000F08300BF59F8041C8907D4D5DCE700BFB6
:101CD000D9F8002043F27423C2F34042C0F6000357
:101CE0009A5C4843B0FBF2F0D9F8001043F25C2252
:101CF000C1F30311C0F60002515C40F2080220FA61
:101D000001F140F20400C2F200000068C2F20002D9
:101D10001160FFF7A1FE002001B0BDE8F0830000D4
:101D200040F2080041F20401C2F20000C4F20201D4
:101D30000068096843F26C22C1F30221C0F6000278
:101D4000515CC84070470000002804BF0120704764
:101D50002DE9F04182B00446007841F20006C00748
:101D6000C4F202060CD0706800F00C00042840F0A9
:101D700081803068800303D56068002800F04E81C0
:101D8000207880071BD5706810F00C0F09D07068A0
:101D900000F00C00082840F08B807068C00300F150
:101DA00087803068800703D52069012840F036819C
:101DB0003068616920F0F80040EAC10030602078A6
:101DC000000713D4207840072CD4E569002D00F0DB
:101DD0002081706800F00C00082840F0AF80012DD1
:101DE00040F00C81012002B0BDE8F081A06900281C
:101DF00000F08C800020C4F242200121C0F8801441
:101E0000FFF730FC054600BF706A800700F1BA801A
:101E1000FFF728FC401B0228F6D9032002B0BDE8DA
:101E2000F08100BFF0695FEAC00808D4F06940F0B3
:101E30008050F061F06900F080500090009847F207
:101E40000007C4F200073868C0054DD4386840F474
:101E500080703860FFF706FC054600BF3868C00593
:101E600042D4FFF7FFFB401B6428F7D9032002B0E0
:101E7000BDE8F081706800F00C00082803D170689C
:101E8000C0033FF576AF6068002800F00981B0F527
:101E9000A02F00F01D81B0F5803F00F01D8130685B
:101EA00020F480303060306820F4802017E100BFDB
:101EB0002069002840F20000C4F2422000F08C802B
:101EC00001210160FFF7CEFB054600BF30688007A7
:101ED0003FF56EAFFFF7C6FB401B0228F6D9032083
:101EE00002B0BDE8F08100BFE068002800F09A80F1
:101EF000052800F0B180012800F0B280306A20F09F
:101F000001003062306A20F00400ACE00020C4F22E
:101F100042200021C0F88014FFF7A4FB054600BF53
:101F2000706A80077FF54EAFFFF79CFB401B0228CD
:101F3000F6D9032002B0BDE8F08100BF0027C4F24B
:101F4000422700203866FFF78DFB022D05460DD194
:101F50003068800140F1D680FFF784FB401B0228E7
:101F60004FF00300F4D902B0BDE8F0813068800181
:101F70004FD5FFF777FB401B02284FF00300F5D940
:101F8000F1E700BF40F20800C2F20000006844F62A
:101F9000D351C1F26201A0FB0101480A019000BFC8
:101FA00000BF0198411E002801913FF40BAF00BF14
:101FB0000198411E002801913FF404AF00BF019831
:101FC000411E002801913FF4FDAE00BF0198411E63
:101FD00000280191E4D1F5E600210160FFF742FB02
:101FE000054600BF306880077FF5E9AEFFF73AFB92
:101FF000401B02284FF00300F4D9B4E77068216A4F
:1020000000F480328A4209D1616A00F4701088427B
:1020100004D1002002B0BDE8F08100BF012002B071
:10202000BDE8F081306A20F001003062306A20F0B3
:1020300004003062FFF716FB054641F2883700BF07
:10204000306A800722D5FFF70DFB401BB8424FF0E6
:102050000300F5D987E700BF306A40F00400306222
:10206000306A40F001003062FFF7FCFA054641F2A9
:10207000883700BF306A800708D4FFF7F3FA401BA7
:10208000B842F7D9032002B0BDE8F081B8F1000FE3
:102090003FF59BAEF06920F08050F06195E600BFFF
:1020A000306820F480303060306820F48020306068
:1020B000FFF7D8FA054600BF306880037FF560AEB1
:1020C000FFF7D0FA401B64284FF00300F4D94AE729
:1020D000306840F480203060306840F480303060F8
:1020E000FFF7C0FA054600BF306880033FF548AEF1
:1020F000FFF7B8FA401B6428F6D9032002B0BDE808
:10210000F08100BF206AB0F5803F05D17168A268F8
:1021100021F40031114371607168626A21F4741115
:1021200011430843706001203866FFF79BFA0446AC
:10213000306880013FF56DAFFFF794FA001B02286D
:102140004FF00300F4D90EE7411E0020B0EB116FF1
:102150001CBF012070474EF21002CEF20002516007
:102160004EF62351CEF20001F0230B700721906050
:1021700011607047FEE7000070B50368044653F82D
:10218000140F400711D40E46481C29D086BB00BF4F
:102190001868400527D4FFF765FA236853F8140F31
:1021A000400737D518684007F2D5002070BD00BF42
:1021B00018684007F9D41868400514D41868400717
:1021C000F3D4186840050ED418684007EDD4186899
:1021D000400508D4186840074FF0000048BF70BDA4
:1021E00018684005E4D56FF480601860042012E0A0
:1021F000154603E053F8140F4007D6D4186840057D
:10220000F1D4FFF72FFA401B2368B042F2D9586986
:102210004007EFD4202000212022216384F83D20B4
:1022200084F83E10226C10432064012084F83C1096
:1022300070BD00002DE9F041054600681E461446B9
:1022400001F47F0201338FB242D0DDF81880B2F57D
:10225000803F40F0878040693840C01BB0FA80F072
:102260004009A04240F0C8804EB924E0406938409F
:10227000C01BB0FA80F04009A04240F0BD80FFF7DB
:10228000F1F9A0EB08012868B142EFD94169394062
:10229000C91BB1FA81F14909A142E7D19BE000BF16
:1022A00040693840C01BB0FA80F04009A0424FF0AE
:1022B000000040F0A280FFF7D5F928684169394055
:1022C000C91BB1FA81F14909A142E9D183E000BFFC
:1022D000B2F5803F24D100BF41693940C91BB1FA32
:1022E00081F14909A14240F0878041693940C91B09
:1022F000B1FA81F14909A14240F07E80416939403B
:10230000C91BB1FA81F14909A14275D1416939402E
:10231000C91BB1FA81F14909A142DDD06CE000BFCF
:1023200081693940C91BB1FA81F14909A14263D1E0
:1023300081693940C91BB1FA81F14909A1425BD1D8
:1023400081693940C91BB1FA81F14909A14253D1D0
:1023500081693940C91BB1FA81F14909A142DFD035
:102360004AE000BF80693840C01BB0FA80F04009E5
:10237000A04241D146B923E080693840C01BB0FA81
:1023800080F04009A04237D1FFF76CF9A0EB0801BB
:102390002868B142F0D981693940C91BB1FA81F18D
:1023A0004909A142E8D116E080693840C01BB0FA63
:1023B00080F04009A0424FF0000018BFBDE8F08156
:1023C000FFF750F9286881693940C91BB1FA81F1DA
:1023D0004909A142E8D100202021286385F83D1059
:1023E00085F83E00296C41F02001296485F83C0005
:1023F0000120BDE8F08100BF0020BDE8F0810000B1
:10240000F0B581B0044600681D4643698FB203EA07
:102410000701B94202D1002001B0F0BD4169164662
:1024200001323FD049053FD4CEB100BFFFF71AF9C2
:10243000411B2068B14203D941693940B94215D1E5
:1024400041693940B942E6D041694905EED52BE0F2
:1024500041693940B942DED04169490524D4FFF7CA
:1024600001F9206841693940B942F1D0202023E0C8
:1024700041693940B942CED04169490514D4416916
:102480003940B942C7D0416949050DD44169394045
:10249000B942C0D04169490506D441693940B942C1
:1024A000B9D041694905E3D5016841F40071016083
:1024B0006FF480614161042000212022216384F8AF
:1024C0003D2084F83E10226C1043206484F83C10B8
:1024D000012001B0F0BD000070B50368044653F858
:1024E000140F000611D40E46481C29D086BB00BF2D
:1024F0001868400527D4FFF7B5F8236853F8140F80
:10250000000637D518680006F2D5002070BD00BF60
:1025100018680006F9D41868400514D41868000635
:10252000F3D4186840050ED418680006EDD4186876
:10253000400508D4186800064FF0000048BF70BD81
:1025400018684005E4D56FF480601860042012E03C
:10255000154603E053F8140F0006D6D4186840055A
:10256000F1D4FFF77FF8401B2368B042F2D95869D5
:102570000006EFD4202000212022216384F83D2092
:1025800084F83E10226C10432064012084F83C1033
:1025900070BD0000FEE70000FEE70000704700008D
:1025A0000160704770470000FFF734BA70470000C1
:1025B000FEE7000070B582B004460B464160217A08
:1025C0005000627A41F00401217242F0340142F07D
:1025D000300220708DF804108DF805208DF806105B
:1025E0008DF807206426C1B201AA1846042300967C
:1025F000FFF7F0F8607A042340F034018DF80410FE
:1026000040F030018DF8051040F024018DF80610DF
:1026100040F02002606821788DF8072001AA00961A
:10262000FFF7D8F80520FEF701FF607A042340F099
:1026300004018DF8041040F014018DF805008DF8A8
:10264000061040F01002606821788DF8072001AA7A
:102650000096FFF7BFF80520FEF7E8FE607A042336
:1026600040F004018DF8041040F0C4018DF805001D
:102670008DF8061040F0C002606821788DF80720C0
:1026800001AA0096FFF7A6F80520FEF7CFFE607AB4
:10269000042340F004018DF8041040F024018DF86B
:1026A00005008DF8061040F02002606821788DF852
:1026B000072001AA0096FFF78DF80520FEF7B6FE69
:1026C000627A042342F0840142F004008DF8041081
:1026D00042F080018DF805108DF8060060682178C1
:1026E0008DF8072001AA0096FFF774F8207A637A24
:1026F00020F001016FF07F02217220F00F0042EA0A
:10270000011143F0040242EA000518438DF8050068
:1027100042EA01008DF8060043EA01026068217870
:102720008DF8072001AA04238DF804500096FFF7C6
:1027300051F80820607202B070BD000082B02DE92F
:10274000F04788B00DF1080A0446CDE9102310AA1D
:1027500050460192FDF7A4FD9DF8080088B34FF0A4
:10276000FF374FF064080DF11C0900BF0AEB0700AA
:102770004078617A20F00F0241F0050341F0010139
:1027800043EA02050A438DF81D2043EA00128DF842
:102790001E2041EA0012606821788DF81F204A4609
:1027A00004237E1C8DF81C50CDF80080FFF712F832
:1027B0005046FDF787FD0E2E03D8B91C88423746D8
:1027C000D4D808B0BDE8F04702B0704780B582B0F9
:1027D00013A3595C437A114401F0700262F07F0E3A
:1027E00043F0040C4CEA0E028DF804204EEA03027A
:1027F0008DF805204CEA01128DF8062043EA0112FB
:10280000436801788DF807204FF0640C01AA184640
:102810000423CDF800C0FEF7DDFF02B080BD00BF8D
:102820000040145490B0FFF703F940F27005C2F273
:10283000000505F1180428462146FFF7B1FE06AE53
:10284000301D2421FDF75DFD0220069001200A9035
:1028500010200B90002730460D97FFF775FA28B12E
:10286000EFF3108072B600BFFEE700BF0F20CDE986
:10287000010701A80021CDE903770597FFF76EF95D
:1028800020B1EFF3108072B6FEE700BF41F21800EE
:10289000C4F202000168002241F0200101600168D9
:1028A0004FF4804301F0200106910699016841F040
:1028B00004010160016801F00401069106990168B4
:1028C00041F008010160006845F2004100F0080095
:1028D00006900698C4F20001284640F8181F48F2F6
:1028E000A061C0F20101C0E90112C0E90323C0E9FF
:1028F0000522C0E90722FEF7BBFE28B1EFF31080E6
:1029000072B600BFFEE700BF0C3508A62846214678
:102910002722FFF74FFE284600210022FFF756FF2F
:1029200028463146FFF70AFFF0E700BF63723769B8
:1029300073676F61740000005FEA400C08BF91F09C
:10294000000F4FEA8C234FEAC12243EA51514FEA6C
:102950001C5018BF00F5F0404FEA300018BF41F09E
:1029600000415FEA6C5C00F02980BCF1FF3F08BFCA
:1029700040F080407047130C06BF12044FF0100C5B
:102980004FF0000C130E04BF12020CF1080C130FD1
:1029900004BF12010CF1040C930F04BF92000CF160
:1029A000020CD30F04BF52000CF1010C11464FF082
:1029B0000002A0F11F00A0EB0C00704711F0004FC7
:1029C00008BF704731F000413FF4D5AF0B0C06BF94
:1029D00009044FF0100C4FF0000C0B0E04BF09025D
:1029E0000CF1080C0B0F04BF09010CF1040C8B0F48
:1029F00004BF89000CF1020CCB0F04BF49000CF19D
:102A0000010CCCF1200322FA03F341EA030102FA9C
:102A10000CF2A0EB0C0000F10100704723F07F479F
:102A200020F07F4C80EA030000F00040ACEB07038D
:102A300003F57C5303F1FF032DE9804909B44FEA04
:102A4000144324EA03484FEA154B25EA0B4E0FF2D4
:102A5000042606EB13273E7803FB0667C7F500073D
:102A600007FB06F64FEAD64606F102064FEA543750
:102A700007FB066CCCF1005C4FEA1C472CEA074CC4
:102A80000CFB06F507FB06F404EB15464FEA961619
:102A900049085FEA320234BF00204FF000404FEA9D
:102AA000D13706FB07FC4FEA1C4C0CFB0BF7D21B83
:102AB00003FB0CF761EB07010CFB0EF7B0EB0740D3
:102AC00072EB17420CFB08F734BFA2EB0742B2EBE4
:102AD000074261EB17414FEA0C444FEA910706FBAE
:102AE00007FC4FEA1C4C0CFB0BF7B0EBC74072EB3A
:102AF000573203FB0CF734BFA2EBC742B2EBC7421D
:102B000061EB57310CFB0EF7B0EBC70072EB57725D
:102B10000CFB08F734BFA2EBC702B2EBC70261EBB4
:102B200057714FEA816141EA92114FEA826242EAAB
:102B300090124FEA806004EBCC04039F4FEAD13738
:102B400006FB07FC4FEA1C4C0CFB0BF7D21B03FBEC
:102B50000CF761EB07010CFB0EF7B0EB074072EBD3
:102B600017420CFB08F734BFA2EB0742B2EB074257
:102B700061EB17414FEA8C5504EB9C244FEA910717
:102B800006FB07FC4FEA1C4C0CFB0BF7B0EBC740F5
:102B900072EB573203FB0CF734BFA2EBC742B2EB28
:102BA000C74261EB57310CFB0EF7B0EBC70072EB7D
:102BB00057720CFB08F734BFA2EBC702B2EBC70297
:102BC00061EB57714FEA816141EA92114FEA8262EB
:102BD00042EA90124FEA806015EB4C2544F1000464
:102BE0004FEAD13706FB07FC4FEA1C4C0CFB0BF7F6
:102BF000D21B03FB0CF761EB07010CFB0EF7B0EBEC
:102C0000074072EB17420CFB08F734BFA2EB0742F8
:102C1000B2EB074261EB17414FEA813141EA924141
:102C20004FEA823242EA90424FEA80304FEA0C7615
:102C300015EB1C1544F1000448EA03434EEA0B4827
:102C40004FF0000EB2EB080C71EB030724BF624695
:102C500039464EEB0E0E4FF0000B00185241494121
:102C60004BEB0B0BB2EB080C71EB03077BF1000B8A
:102C700024BF624639464EEB0E0E4FF0000B001893
:102C8000524149414BEB0B0BB2EB080C71EB0307C4
:102C90007BF1000B24BF624639464EEB0E0E51EA23
:102CA000020718BF46F0010616EB0E7655F100023A
:102CB00054F1000103D5BDE88901BDE80088BDE8F5
:102CC0008901BDE80048B619524141EB0101A3F169
:102CD0000103704780807F7E7D7C7B7A7978777670
:102CE00076757473727171706F6E6E6D6C6C6B6AE9
:102CF0006A69686867666665646463636261616087
:102D0000605F5F5E5E5D5D5C5C5B5B5A5A59595803
:102D1000585757565655555554545353525252516D
:102D2000515050504F4F4F4E4E4D4D4D4C4C4C4BC3
:102D30004B4B4A4A4A49494948484847474747460A
:102D40004646454545444444444343434342424246
:102D5000424141419C46002B30D477002BD04FEAB2
:102D600037071CB503B44FF010004FF01001BAF153
:102D7000000F06D0BCF1000FDCBF40F0080040F0AF
:102D800008014FF000000FBCBDE810400BF1010B33
:102D9000BBF1010F08BF5FEA170722BF12F1010262
:102DA00011F101014FF0004143F1000300F0004038
:102DB00043EA00007047F9D35708D0E746EA0646D1
:102DC0004FEA164613F1400F1FDD13F1200FDFBF4E
:102DD00016430A46002120335B42BED0C3F12007D0
:102DE00046EA06464FEA164602FA07F746EA07069B
:102DF00022FA03F2C3F1200701FA07F742EA0702B9
:102E000021FA03F14FF00003A7E746EA020646EA7B
:102E100006464FEA164646EA0106BCBF46EA0646A3
:102E2000360C4FF000034FF000024FF0000194E722
:102E30002DE9804C70B49A46934691E8380007C853
:102E400031EA400C48BF34EA430C03D5FFF7E6FDF6
:102E5000FFF780FFF0BCBDE8008C2DE9804C70B41A
:102E60009A46934691E8380007C810F0804F08BF93
:102E700013F0804F03D100F005F8FFF76BFFF0BCB3
:102E8000BDE8008C20F07F4723F07F4C80EA0300F0
:102E900000F0004007EB0C03A3F57C53A3F1FE0305
:102EA00092F0000F00F0B38095F0000F00F07780F3
:102EB0002DE901494FEA114021EA00484FEA144642
:102EC00024EA064700FB06FC08FB06F607FB08F8A9
:102ED00018EB06484CEB164C00FB07F718EB0748BD
:102EE0004CEB17404FEA124B22EA0B4E4FEA1546C5
:102EF00025EA06470BFB06FC0EFB06F607FB0EFE5B
:102F00001EEB064E4CEB164C0BFB07F71EEB074E69
:102F10004CEB174B18EB0B0840F1000018EB0E0BB5
:102F200058EB000840F100008F1A4FF000014FF0FD
:102F300000063CBFC943661B14BFB5EB040C00215F
:102F40003CBFC943F61B4FEA174427EA04454FEA42
:102F50001C472CEA074C04FB076205FB07F70CFB38
:102F600005F616EB074642EB174204FB0CFC16EB8A
:102F70000C4642EB1C421BEB060658EB0202414199
:102F80004EEA8E0E46EA9E0601D5BDE80189B619C5
:102F9000524141EB0101A3F10103BDE801894FEA70
:102FA000144524EA05464FEA114721EA074C05FB80
:102FB00007F406FB07F70CFB06F111EB074144EBA6
:102FC000174405FB0CFC11EB0C4144EB1C444FEA8D
:102FD000124722EA074C05FB07F206FB07F70CFB3A
:102FE00006F616EB074642EB174205FB0CFC16EB08
:102FF0000C4642EB1C456A1854F1000148BF70476B
:10300000B619524141EB0101A3F10103704795F05C
:10301000000F37D04FEA114221EA02464FEA144727
:1030200024EA074C02FB07F106FB07F70CFB06F44A
:1030300014EB074441EB174102FB0CFC14EB0C446E
:1030400041EB1C414FEA154725EA074C02FB07F507
:1030500006FB07F70CFB06F616EB074645EB174594
:1030600002FB0CFC16EB0C4645EB1C42121951F10D
:10307000000148BF7047B619524141EB0101A3F16D
:10308000010370474FEA144524EA05464FEA114709
:1030900021EA074C05FB07F106FB07F70CFB06F2DC
:1030A00012EB074241EB174105FB0CFC12EB0C4203
:1030B00051EB1C414FF0000648BF7047921841EB9E
:1030C0000101A3F101037047490050EAC12018BF74
:1030D00004204A0D18BF40F0010040F2FF72B2EB2D
:1030E000515F08BF40F00200012808BF052070476B
:1030F00030380A2801D201207047002070470000B4
:1031000010B500290AD00878002807D0054878446F
:10311000FEF740F9002801D0002010BD0248784495
:1031200010BD00009A0100009201000010B50029B6
:103130000AD00878002807D005487844FEF72AF915
:10314000002801D0002010BD0248784410BD0000C6
:103150008A01000082010000FDF726BDFDF75ABE7E
:1031600000000000000000003031323334353637C3
:1031700038394142434445464030580030313233BB
:1031800034353637383961626364656640307800BB
:103190000400000800000000000000020001000020
:1031A0001030313233343536373839616263646513
:1031B0006678700030313233343536373839414231
:1031C000434445465850000002400000000000A063
:1031D0000000000005400000000000C800000000E2
:1031E0000C4000000000409C00000000194000005E
:1031F0000020BCBE0000000034400000BFC91B8E90
:1032000000000004B5400000504BCFD06607E2CF6D
:10321000010000006C4100003E8251AADFEEA7349D
:1032200001000000D9420000DCB5A0E23A301F974F
:10323000FFFFFFFFB4450000FD25A0C8E9A3C14F73
:10324000FFFFFFFFFF3F00000000008000000000C4
:10325000FF3F0000000000800000000000000000B0
:103260000000000001020304060708090000000036
:1032700001020304010202030405060708090A0B00
:103280000C0D0E0F10100000D833000800000020B5
:103290001000000050010008E83300081000002072
:1032A000D0060000700100081C0000004300000070
:1032B000F8FFFFFF0C0000000E0000000F000000F0
:1032C0002E0000001001000043000000F8FFFFFF87
:1032D0000040404040404040404041414141414029
:1032E00040404040404040404040404040404040DE
:1032F000400502020202020202020202020202026D
:103300000220202020202020202020020202020271
:1033100002029090909090901010101010101010C9
:1033200010101010101010101010101002020202D5
:103330000202888888888888080808080808080819
:103340000808080808080808080808080202020215
:10335000400000000000000000000000000000002D
:10336000000000000000000000000000000000005D
:10337000000000000000000000000000000000004D
:10338000000000000000000000000000000000003D
:10339000000000000000000000000000000000002D
:1033A000000000000000000000000000000000001D
:1033B000000000000000000000000000000000000D
:1033C00000000000000000000000000000000000FD
:1033D00000000000000000000100000010000000DC
:0833E0000024F40000000000CD
:04000005080000ED02
:00000001FF
