:020000040800F2
:100000002807002061020008592A0008312A000848
:10001000552A0008FD150008852B00080000000087
:10002000000000000000000000000000612A00083D
:1000300001160008000000005D2A0008652A00087B
:100040007B0200087B0200087B0200087B0200089C
:100050007B0200087B0200087B0200087B0200088C
:100060007B0200087B0200087B0200087B0200087C
:100070007B0200087B0200087B0200087B0200086C
:100080007B0200087B0200087B0200087B0200085C
:100090007B0200087B0200087B0200087B0200084C
:1000A0007B0200087B0200087B0200087B0200083C
:1000B0007B0200087B0200087B0200087B0200082C
:1000C0007B0200087B0200087B0200087B0200081C
:1000D0007B020008792B00087B0200087B020008E5
:1000E0007B0200087B0200087B02000800F002F897
:1000F00000F0A6F814A696E8000CB244B344DA4522
:1001000001D100F09DF8BAE80F000FA696E8300084
:10011000A5EB040504EB0607AAEB0704A7F101070A
:100120004FEA15154FEA3414A4F10104AC4201D38F
:1001300000F086F813F0010F18BFFB1A43F001031B
:1001400000F001F8DBE7184788360000A836000009
:10015000103A24BF78C878C1FAD8520724BF30C8F3
:1001600030C144BF04680C60704700007047000055
:100170000023002400250026103A28BF78C1FBD8B0
:10018000520728BF30C148BF0B6070476E2900F08E
:10019000D981702900F01B83662903F080826529CC
:1001A00003F07D82672903F07A82612903F0798266
:1001B00003681B0A28BF41F08001692900F086818D
:1001C000642900F08381752900F080816F2900F097
:1001D000A982782900F0E782E92900F04382E42926
:1001E00000F04082F52900F03D82EF2900F0A68260
:1001F000F82900F0E6820368DB0928BF41F080019E
:10020000632901F04D80732901F05280E32901F048
:100210005D80F32901F06280002070471FB501F076
:1002200017F904000020002103F096F9401C6060DB
:100230000020002103F0A6F9E0601FBD10B510BD3D
:1002400001F0E1F81146FFF7E9FF02F01BFD01F0B4
:10025000C3F903B4FFF7F2FF03BC01F0C7F90000D4
:100260000948804709480047FEE7FEE7FEE7FEE74A
:10027000FEE7FEE7FEE7FEE7FEE7FEE70448054986
:10028000054A064B70470000692A0008ED00000887
:100290002801002028070020280300202803002030
:1002A0001CB50C46064B7B4469460090204600F086
:1002B00062F904460020694600F070F920461CBD32
:1002C000F302000070B5064600F09AF8046805468F
:1002D00030460A22002100F049FB2C6070BD00006E
:1002E000014A00F07BBB00000000002010B5431C59
:1002F00002E010F8011B71B18107FAD14FF0013211
:1003000002C88C1A8C4314EAC211F9D0C01A0A062A
:1003100003D0C01E10BDC01A10BD0A0401D0801E3B
:1003200010BD0902FCD0401E10BD4FF0000200B508
:10033000134694469646203922BFA0E80C50A0E808
:100340000C50B1F12001BFF4F7AF090728BFA0E8B6
:100350000C5048BF0CC05DF804EB890028BF40F882
:10036000042B08BF704748BF20F8022B11F0804FC4
:1003700018BF00F8012B70474FF0013C50F8042BD8
:1003800051F8043B9A4221D1A2EB0C03934313EAA8
:10039000CC1317D150F8042B51F8043B9A4215D1D5
:1003A000A2EB0C03934313EACC130BD150F8042BAC
:1003B00051F8043B9A4209D1A2EB0C03934313EA90
:1003C000CC13DBD04FF00000704700BFD01A01BA49
:1003D000B1FA81F101F0180122FA01F0CB40DBB251
:1003E000C0B2C01AC1F120012CFA01F3D11A914315
:1003F00011EAC311E6D1704770477047704700009B
:10040000004870471000002070B5044685690068F8
:10041000C10601D5302600E02026C00707D070BDF8
:10042000D4E9012130469047206A401C20626D1EAD
:10043000F6D570BD70B5044685690078C00707D150
:1004400070BDD4E9012120209047206A401C206221
:100450006D1EF6D570BD09684A0501D540B27047DA
:10046000C905FCD500B2704709684A0501D5C0B27C
:100470007047C905FCD580B2704770B50C4605467B
:10048000012A05D02878800600D5EA69002302E019
:10049000012305E05B1C934202D2E05C0028F9D105
:1004A000A869E618C01AA861286A18442862284674
:1004B000FFF7AAFF04E0D5E9012114F8010B9047EA
:1004C000B442F8D32846FFF7B5FF70BD2DE9F041DF
:1004D0000646002410687529314616A510D0FFF78E
:1004E000BAFF002802DA404213A507E031688A0704
:1004F00001D512A502E0490704D511A5012401E0A8
:10050000FFF7B2FF00210A2206F1240709E0B0FB41
:10051000F2FCB0FBF2F302FB1C00303078541846BA
:10052000491C0028F3D123462A463046BDE8F04155
:1005300000F0C7BA000000002D0000002B000000F2
:100540002000000011680268006A530501D5087098
:100550000AE0D30501D5088006E0130603D5C217CB
:10056000C1E9000200E008600120704701694A1CEF
:1005700002610878704700B58FB0CDE901310021E4
:10058000059105497944CDE903101146684600F00C
:1005900029F90FB000BD0000E5FFFFFF0A6802F86F
:1005A000010B0A60704700002DE9FF5F15468A467F
:1005B0000446DFF8AC80F8440027D8E900103E4636
:1005C000CDE9001010E03AF816106A4602A800F0D3
:1005D000D8FE411C07D02178890603D5E269391875
:1005E00091420DD80744761C2078800602D5E06938
:1005F000B84205DDAE42E6DB3AF816000028E2D14B
:10060000A069C01BA0612046FFF7FEFED8E90010DC
:10061000CDE90010002017E03AF818106A4602A849
:1006200000F0AFFEB0F1FF3F81460BD000250DF189
:10063000080B05E0D4E901211BF8050090476D1C6B
:100640004D45F7D308F10100B0428046E4DB206A53
:10065000384420622046FFF7EDFEBDE8FF9F000012
:10066000EE3000002DE9F0418046D21D22F0070255
:100670000025D2E90002F52915A614D0011E72F159
:10068000000106DA0023D0EB030063EB020211A69F
:1006900008E0D8F800108B0701D50FA602E0490743
:1006A00001D50EA601251146002408F1240704E017
:1006B00000F0C2F930323A55641C50EA0102F7D119
:1006C0002B46324621464046BDE8F04100F0F9B9DC
:1006D000000000002D0000002B00000020000000A2
:1006E00030B4002100F1240408E002F00705D2082C
:1006F000303542EA4372DB086554491C52EA03056F
:10070000F3D10468002310A2250708D504F02004C3
:100710000C4304D0C46901230CA2641EC46130BC24
:1007200000F0CFB910B5044621461068FFF79CFED3
:1007300002462046BDE810400023D1E7D21D22F03A
:100740000701D1E90023CBE70000000030000000E2
:10075000F0B40D460188090502D5214C7C4402E025
:100760001F4C7C440E34002100F1240608E002F006
:100770000F071209E75D42EA03721B097754491C0F
:1007800052EA0307F3D102780023120704D5702D33
:1007900006D009B1022311342246F0BC00F091B911
:1007A00001231034F8E770B504460D462146106861
:1007B000FFF75AFE024629462046BDE87040002356
:1007C000C6E7D21D22F00703D3E90023C0E7036880
:1007D000126843F0200303600823C3610023B7E7D6
:1007E000502F00002DE9F05F894604464FF0000AC3
:1007F000DFF874B1FB44C0F820A02046E1688847C8
:10080000002874D0252806D0D4E901219047206A19
:10081000401C2062F1E700265F462046E1688847D9
:100820002028054607DB312D05D2781910F8200C59
:1008300008B10643F1E7B00701D526F00406C4F875
:100840001CA00027C4F818A02A2D09D0284602F0C1
:100850007BFE38B304EB8708303DC8F8185019E028
:1008600059F8041B204604EB87029161E168884730
:10087000012F054618D1E069002820DA26F020066D
:100880001DE0D8F8180000EB800005EB4000303880
:10089000C8F818002046E1688847054602F054FE73
:1008A0000028EED1012F0AD02E2D08D12046E16874
:1008B00088477F1C0546022F46F02006C4DBA0694E
:1008C000002803DA404246F00106A061F00701D09B
:1008D00026F010066C2D0BD0682D09D04C2D39D088
:1008E0006A2D35D0742D35D07A2D33D016E038E00E
:1008F000E1682F4620468847B842054609D16C2F4B
:1009000026D04FF48060E1680643204688470546BC
:1009100004E06C2F1AD04FF4807006430DB3A5F19C
:100920004100192802D8203546F400664A46294677
:10093000204626604E46FFF729FC80B101280BD0E7
:10094000F61D26F0070000F1080956E74020E4E70D
:100950008020D8E70020D6E706F104094DE72846B5
:1009600052E7206ABDE8F09FE02E00002DE9F04735
:1009700091460F4680460446002614F8015B2DB1CF
:1009800000F052F80068405DC007F6D12B2D02D070
:100990002D2D18D0641E4A463946204600F0A2FC90
:1009A00027B13968A14201D1C7F800804FF0020495
:1009B00071050BD54042002803DDFFF721FD0460DF
:1009C000A007BDE8F08746F48066E4E70028F8DA7F
:1009D000FFF716FD04606FF00040F2E72DE9F041EB
:1009E00015460E46040002D12C6804B90BA420461B
:1009F00000F0FBFC0444207870B1274631463846AD
:100A000000F0E3FC0444207810B1002004F8010B4E
:100A100038462C60BDE8F0810027F9E700000000AF
:100A2000004870471000002010B500F011FD001DB7
:100A300010BD00BF252B000030B5B0F10A0271F1E6
:100A400000034FEA900E4EEA817EB0EB0E0061EBA0
:100A500091014FEA101E4EEA017E10EB0E0041EBB1
:100A600011114FEA102E4EEA016E10EB0E0041EB11
:100A700011214FEA104E4EEA014E10EB0E0041EBF1
:100A80001141401841F100014FEAD00040EA4170A5
:100A90004FEAD1014FEA810444EA907410EB8005DB
:100AA00044EB01046D1944EB0404521BA3414FF0C5
:100AB000000348BF0A3200D530BD401C41F100019F
:100AC00030BD2DE9F0470D4699469246044600F1A7
:100AD00024080168880604D5E06921F0100121602E
:100AE00000E00120A84201DD471B00E00027A169CA
:100AF0007A1902EB0900081AA0612078C00602D416
:100B00002046FFF781FC002608E0D4E901211AF80D
:100B100006009047206A401C761C20624E45F4DB9C
:100B20002078C0060AD52046FFF76EFC06E0D4E91F
:100B3000012130209047206A401C2062381EA7F116
:100B40000107F4DC07E0D4E9012118F8050090471B
:100B5000206A401C2062281EA5F10105F3DC204616
:100B6000FFF768FC2078000602D50220BDE8F08778
:100B70000120FBE72DE9FF4F0C461E464FF0FF37E3
:100B80008BB0D2E90001DDF860800A908A46C1F39B
:100B90000A5505B93D46002108464FF00000BAF15C
:100BA000000F00F4400005DA00EB80004FF4400134
:100BB00001EA50004FEA9059B9F1010F00DDB94642
:100BC0000A9850EA4A000ED044F61050A5F2FF35BC
:100BD00045432F14B8F1000F1ED07542291E1EDDAB
:100BE000C9F100021CE0B8F1010F4FF0000001D084
:100BF000302103E0F24305E02154401CB042FBDB0E
:100C000030460022002121540B99C1F80880C1E927
:100C100000200FB0BDE8F08FBD1B6D1CDEE74A461B
:100C200000DA694206A800F065FC06AB93E807000D
:100C300003AB83E8070050460A9902F0A9F88DE853
:100C40000700A0F500501F3800900398002D0ADD22
:100C500042F21F014A460844002303A90390684654
:100C600002F012FB09E0A0F500504A461F380023AD
:100C700003A90390684602F01CFB8DE807000004FE
:100C8000000C03D04FF0FF30410800E01046B8F1EF
:100C9000000F03D00022009215461EE0751E05D4F9
:100CA000FFF7CAFE303262556D1EF9D5B3460122F8
:100CB000084302D000227F1C04E02078302801D1B4
:100CC00000227F1E002A099784D01DE0112D07DA2B
:100CD000FFF7B2FE303262556D1C50EA0102F5D1C9
:100CE000084302D00098C8B10EE00021681E05E05C
:100CF000235C625C63542254401E491C8142F7DB32
:100D0000AB46A81B401E0990002004F80B000B986E
:100D1000099AC0F80880C0E9002B7AE711264FF045
:100D2000000857E72DE9F04F88460446D21D22F00F
:100D3000070191B0D1E90001CDE90A0102F0F0FB11
:100D400002460B98C00F01D02D2007E020688107D4
:100D500001D52B2002E0202101EAC000032A0990DE
:100D600001D0072A05DB03464146204600F074FB0C
:100D70000BE12078800601D5E06900E00620B8F19B
:100D8000650F814606D0B8F1660F18D0B8F1670F2D
:100D900070D131E00020B9F1110F009001DB112377
:100DA00001E009F101030AAA01A90CA8FFF7E2FE7C
:100DB000DDE90C70002609F10105834647E00120BA
:100DC0004B4600904FF000470AAA01A90CA8FFF774
:100DD000D1FEDDE90DB00C995D46002610B909F190
:100DE00001000D18B9EB050003D4C0F1FF3609F17D
:100DF0000105A5EB09002BE0B9F1010F01DA4FF075
:100E000001090020B9F1110F0090484601DD1123BE
:100E100000E003460AAA01A90CA8FFF7ABFEDDE932
:100E20000C704D4600268346207800070AD4AB4557
:100E300000DA5D4601A8012D04DD411911F8011CFD
:100E4000302907D04F4502DA17F1040F04DA0120E8
:100E500082460FE06D1EEEE7002F02DCED1B3E44E4
:100E600003E0781CA84200DD7D1CB81B00F1010ADC
:100E70004FF000472078000703D4AA4501DB4FF06C
:100E8000FF3A0021B7F1004F0DF143088DF84310F0
:100E900024D002202B23002F01DA7F422D230A21A8
:100EA000021EA0F1010000DC5FB197FBF1FC97FB93
:100EB000F1F201FB1C7C17460CF1300C08F801CD57
:100EC000EEE7A8F1010003702188090501D545214D
:100ED00000E06521A0F1010800F8011C09980FA9A4
:100EE000A1EB0807FF1D00B10120411901EBEA70D9
:100EF000A1693844081A401EA0612078C00602D4B7
:100F00002046FFF781FA099828B1D4E901219047DA
:100F1000206A401C20622078C00622D52046FFF7B8
:100F200073FA1EE0002E04DBB34502DD01A8805DEC
:100F300000E03020D4E901219047206A401C206263
:100F4000761CAAF101005FEA000A0AD100F080FADB
:100F5000C0680168405CD4E901219047206A401CC8
:100F60002062281EA5F10105DCDC07E0D4E901219F
:100F700018F8010B9047206A401C2062381EA7F128
:100F80000107F3DC2046FFF755FA032011B041E6D4
:100F90002DE9F04F04460D46D21D22F0070089B01E
:100FA000D0E900974846394602F0BAFA0246F80FEF
:100FB00001D02D2307E02068810701D52B2302E013
:100FC000202101EAC0038DF820300BB1012000E0A0
:100FD0000020032A824601D0072A04DB2946204646
:100FE00000F03AFA3FE12078800601D40D2500E0B8
:100FF000E569C7F30A560D2D49DA00214FEA175B60
:1010000008464FF00000002F00F4400007DA00EB24
:1010100080004FF4400100EBD07001EA60008115C0
:10102000012901DD4FF0FF3100224FEA850CBCF1B0
:10103000180F06D31346ACF118004FF08052C2408F
:1010400003E04FF4801323FA0CF30CF10C0CBCF109
:10105000200F04D3ACF1200C09FA0CF001E007FAE0
:101060000CF000294FF0004801DD18B90FE00ED157
:1010700040450CD319EB02095F4121B9404502D12B
:101080009F4329EA0209BBEB175F00D0761C20883A
:10109000000502D57B48784402E07A487844193844
:1010A00008AA302302F80A30037C0AF10101002E5D
:1010B0000AF1020A53546A4602DC4FF0300101E0A3
:1010C0004FF031014FF001088DF8001002D0A6F268
:1010D000FF3603E059EA470100D06B4E002D02DCD9
:1010E0002178090704D54FF002082E218DF8011050
:1010F000C44600210BE0C7F303433F01C35C491C16
:101100006D1E02F80830052908F1010801DA002DEA
:10111000F1DC00210CE000EB1973491C1B786D1EFB
:10112000082902F808304FEA091908F1010801DA24
:10113000002DF0DC21688B0602D516E0A8F101082D
:10114000E04505DD02EB080313F8013C302BF5D038
:10115000B8F1000F09DD02EB080313F8013C2E2B58
:1011600003D1090701D4A8F10108002D05DD3E21B6
:1011700002F808106D1E08F10108407C002E02F8EC
:10118000080008F1010804DA2D20764202F8080070
:1011900002E02B2002F808000A214FF47A70864200
:1011A00008F101080BDB96FBF0F3303302F808304E
:1011B00096FBF0F308F1010800FB136601E0642ED2
:1011C0000CDB642096FBF0F3303302F8083096FB1A
:1011D000F0F308F1010800FB136601E00A2E06DBBC
:1011E00096FBF1F0303002F8080008F1010896FB98
:1011F000F1F001FB1060303002F80800A16908F13D
:10120000010808EB050202EB0A00081AA061207829
:10121000C00602D42046FFF7F7F8216A08AE01EBBA
:101220000A00206204E0D4E9012116F8010B90477E
:10123000BAF1010AF7D22078C00602D52046FFF79E
:10124000E3F86E4609E016F8010B3E280FD0D4E90A
:1012500001219047206A401C2062B8F10108F2D2B7
:101260002046FFF7E7F809B00320BDE8F08F206AB9
:101270002844206203E0D4E90121302090476D1E0C
:10128000EBD3F8E76226000002FCFFFF10B54369CC
:1012900013B1AFF3008001E0FFF7EFF8012010BDBC
:1012A000127800F124010A7000224A700122EDE751
:1012B00011684FF0FF32E9E710B5436913B1AFF39E
:1012C000008001E0FFF770F9012010BD128800F1E5
:1012D000240182840022C2840122EDE711684FF0CC
:1012E000FF32E9E72DE9F05F824615468B4600277D
:1012F0000AF10104B9460078302801D09DB113E00D
:1013000014F8010B0127782803D0582801D045B1E3
:101310000AE00DB1102D07D1002714F8010B10259C
:1013200002E0082500E00A250026B0460EE005FB95
:10133000080005FB06F101271FFA80F801EB1046B3
:10134000B6F5803F00D3B94614F8010B294600F0EA
:10135000C3F80028EBDABBF1000F05D00FB1641E13
:1013600000E05446CBF80040B9F1000F06D0FFF77B
:1013700047F802210160C81EBDE8F09F48EA064018
:10138000FAE72DE9F04116460C460546FFF74CFBFF
:10139000036893F80101012807D0FF2C12D8185DCB
:1013A00080B101202C70BDE8F081D3F807013246EE
:1013B000214603F20713C7182846BC46BDE8F04192
:1013C000002360474FF0FF30EDE730B503461D784E
:1013D0001DB10A4603E0AC4201D1181A30BD12F823
:1013E000014B002CF7D15B1CF1E730B503461D78AB
:1013F0003DB10A4612F8014B1CB1AC42FAD15B1C5C
:10140000F5E7181A30BD7546FFF70AFBAE46050032
:101410006946534620F00700854618B020B5FEF710
:101420002DFFBDE820404FF000064FF000074FF0C1
:1014300000084FF0000BAC46ACE8C009ACE8C009AE
:10144000ACE8C009ACE8C00921F007018D4670473F
:1014500000487047300000202DE9F0411F46044647
:1014600003260168072A01F4006004DB08B116A511
:1014700005E016A503E008B115A500E015A521F0CB
:1014800010002060A069C01EA0610FB1401EA061C5
:101490002046FEF7B9FF4FB1D4E901213846904705
:1014A000206A401C2062C01C206206E0206AFAE725
:1014B000D4E9012115F8010B9047761EF8D2204699
:1014C000FEF7B8FFBDE8F0814E414E006E616E0040
:1014D000494E4600696E66003A2800D2303820F046
:1014E0002002412A01D3A2F13700884201D34FF0F4
:1014F000FF3070472DE9F047814616468AB03548DF
:1015000078440DC88DE80D0032487844801C03AC47
:101510000DC884E80D0041F69B300844372190FB4C
:10152000F1F290FBF1F5A5F1800501FB12041B3CE3
:1015300002D56442012000E00020DFF898A0804638
:101540000027FA44AAF1BE0A0EE0E0070AD03246AC
:10155000684607EB470101230AEB810101F0A9FE70
:101560008DE8070064107F1C002CEED1194F7F44DA
:10157000AE3F19E0E80715D007EB04100DF1180A8B
:1015800090E80E008AE80E00C068F04201D1981978
:1015900008903246012306A903A801F08AFE03AB96
:1015A00083E807006D10641C002DE3D14FF00103A8
:1015B00032466946B8F1000F03A802D001F064FE7C
:1015C00001E001F076FEC9E90001C9F808200AB07F
:1015D000BDE8F0878822000010B50446AFF3008014
:1015E0002046BDE81040FEF734BE00000149182037
:1015F000ABBEFEE72600020070470000FEE70000D9
:1016000070470000014690F82100022816D10868B2
:10161000D1E90FC3026822F00E020260026822F0D4
:1016200001020260012000FA03F2CCF8042081F8E4
:1016300021000020002281F82020704704208863C8
:101640000120002281F820207047000090F821102E
:10165000022923D10268116821F00E0111602F21A7
:101660001368C4F202018A4240F20401C4F202018A
:1016700023F00103136015DD3023C4F202039A4204
:101680001CD04423C4F202039A421BD05823C4F254
:1016900002039A421CD14FF4803321E0042181637C
:1016A000012070470823C4F202039A420ED01C2383
:1016B000C4F202039A420BD1102311E04FF480735D
:1016C0000EE000BF4FF480530AE000BF012307E0A3
:1016D00001F1680C4FF08073624508BF4FF480132E
:1016E0000B60012180F82110426B002180F820104E
:1016F00022B180B590470021BDE880400846704780
:101700002DE9F04F82B00E68002E00F0FD8041F20E
:101710000042C4F20102042340F2004E904208BF8E
:1017200003234FF6FF7CC4F2010E00930024012333
:10173000C1F2100C4FF0000A4FF0000944E000BF66
:10174000012704F00C030F229A402BEA020207FA49
:1017500003F34FEA9A051A4346F825204E6840F2F3
:101760000C45F202DEF8082054BF22EA080242EAE1
:101770000802C4F20105CEF808202A68B30254BF5B
:1017800022EA080242EA08022A60B303DEF80420D3
:1017900054BF22EA080242EA0802F303CEF804200A
:1017A000DEF800204FF0010354BF22EA080242EAAB
:1017B0000802CEF800200E680AF1010A36FA0AF291
:1017C00004F1040400F0A08003FA0AFB16EA0B08F7
:1017D000F1D04E68664511DC122E55D8DFE806F0D0
:1017E000340A44485454545454545454545454543F
:1017F000544C5000D1F80C9046E000BF4FF6FF72F9
:10180000C1F2210296420FDC0022C1F2110296427F
:101810001AD00022C1F21202964215D00022C1F263
:101820002102964210D02FE00022C1F222029642FD
:101830000AD00022C1F23102964205D00022C1F244
:101840003202964220D100BF8A684AB1012A14BFF1
:10185000C0F814B0C0F810B04FF0080914E000BF91
:101860004FF0040910E000BFCA6802F108090BE05C
:101870004FF0000908E000BFCA6802F1040903E064
:10188000CA6802F10C0900BF22460646B8F5807FFF
:1018900024BF203A043637680F25954027EA05050E
:1018A00009FA02F22A433260CA79D2067FF583AF81
:1018B00041F21803C4F202031A68AEF57E7642F0D4
:1018C00001021A601A6802F001020192019A2AF0DC
:1018D000030256F802B040F60002C4F20102904240
:1018E00010D040F60042C4F2010290423FF428AF0B
:1018F00041F20002C4F20102009F904208BF022799
:101900001FE700BF00271CE702B0BDE8F08F000012
:1019100040F22410C2F200000068704740F2040058
:1019200040F22411C2F20000C2F2000100780A68FD
:10193000104408607047000080B542F20000C4F215
:101940000200016841F010010160032000F08CF8F2
:101950000F2000F005F800F027F8002080BD0000FF
:1019600070B540F20406C2F2000640F20C01327873
:10197000C2F200014FF47A730968B3FBF2F2044635
:10198000B1FBF2F1084600F089FB0F2C4FF0010586
:1019900008D838B94FF0FF3021460022002500F06A
:1019A00037F87460284670BD82B041F21800C4F266
:1019B00002000168022241F001010160016801F0AA
:1019C000010101910199416841F0805141604068F5
:1019D00000F08050009000980420C4F201000168DB
:1019E00062F31A61016002B070470000002848BF2E
:1019F000704700F01F01012202FA01F11C2202EAE5
:101A0000D0004EF20012CEF200028150704700006A
:101A100010B54EF60C5CCEF2000CDCF80030C3F3CF
:101A2000022E8EF00704042C28BF0424BEF1030309
:101A30004FF0FF3E0EFA04F438BF0023A143994053
:101A40000EFA03F39A43114300F00F0200F16043D2
:101A50000901043A03F564436244002848BF02F1D7
:101A60000C03197010BD00004EF60C51CEF20001AF
:101A70000A684FF6FF031A4060F30A2242F08060C2
:101A800040F0FD7008607047002804BF01207047D7
:101A90002DE9F04381B042F20008C4F20208044686
:101AA000D8F800000D4600F0070088420CD2D8F8A4
:101AB000000020F007002843C8F80000D8F8000014
:101AC00000F00700A8426CD1206841F204098107A8
:101AD000C4F2020917D5410705D5D9F8001041F421
:101AE000E061C9F80010010705D5D9F8001041F4EC
:101AF0006051C9F80010D9F80010A26821F0F00177
:101B00001143C9F80010C00742D1D8F8000000F016
:101B10000700A8420CD9D8F8000020F0070028439D
:101B2000C8F80000D8F8000000F00700A84238D13B
:101B30002068410707D5D9F80010E26821F4E06178
:101B40001143C9F80010000708D5D9F80000216931
:101B500020F4605040EAC100C9F80000D9F8002024
:101B600002F00C00082841F20020C0F27A0051D1A6
:101B700043F2BE73C2F38341C0F60003595CD20343
:101B80003CD440F60010C0F23D00484342E000BFA4
:101B9000606802280AD001282AD159F8041C890358
:101BA00008D4012001B0BDE8F08300BF59F8041C3F
:101BB0008901F6D5D9F8001021F003010843C9F8CE
:101BC0000000FFF7A5FE064641F28837D9F800006D
:101BD000616800F00C00B0EB810F96D0FFF798FE23
:101BE000801BB842F2D9032001B0BDE8F08300BFEA
:101BF00059F8041C8907D4D5DCE700BFD9F80020C8
:101C000043F2BC73C2F34042C0F600039A5C4843FF
:101C1000B0FBF2F0D9F8001043F2A472C1F3031143
:101C2000C0F60002515C40F20C0220FA01F140F2D1
:101C30000800C2F200000068C2F200021160FFF763
:101C40008FFE002001B0BDE8F083000040F20C00E0
:101C500041F20401C2F20000C4F202010068096806
:101C600043F2B472C1F30221C0F60002515CC840D5
:101C70007047000040F20C0041F20401C2F2000083
:101C8000C4F202010068096843F2B472C1F3C221D0
:101C9000C0F60002515CC84070470000002804BF35
:101CA000012070472DE9F04182B00446007841F2EE
:101CB0000006C007C4F202060CD0706800F00C00E9
:101CC000042840F081803068800303D560680028D4
:101CD00000F04E81207880071BD5706810F00C0F43
:101CE00009D0706800F00C00082840F08B80706804
:101CF000C00300F187803068800703D52069012880
:101D000040F036813068616920F0F80040EAC10097
:101D100030602078000713D4207840072CD4E56980
:101D2000002D00F02081706800F00C00082840F0C1
:101D3000AF80012D40F00C81012002B0BDE8F081A0
:101D4000A069002800F08C800020C4F2422001210C
:101D5000C0F88014FFF7DCFD054600BF706A8007FD
:101D600000F1BA80FFF7D4FD401B0228F6D903200A
:101D700002B0BDE8F08100BFF0695FEAC00808D496
:101D8000F06940F08050F061F06900F08050009000
:101D9000009847F20007C4F200073868C0054DD428
:101DA000386840F480703860FFF7B2FD054600BF28
:101DB0003868C00542D4FFF7ABFD401B6428F7D953
:101DC000032002B0BDE8F081706800F00C00082824
:101DD00003D17068C0033FF576AF6068002800F05B
:101DE0000981B0F5A02F00F01D81B0F5803F00F013
:101DF0001D81306820F480303060306820F480200D
:101E000017E100BF2069002840F20000C4F2422020
:101E100000F08C8001210160FFF77AFD054600BFCC
:101E2000306880073FF56EAFFFF772FD401B022858
:101E3000F6D9032002B0BDE8F08100BFE0680028B9
:101E400000F09A80052800F0B180012800F0B280EF
:101E5000306A20F001003062306A20F00400ACE00B
:101E60000020C4F242200021C0F88014FFF750FD8A
:101E7000054600BF706A80077FF54EAFFFF748FD4B
:101E8000401B0228F6D9032002B0BDE8F08100BF54
:101E90000027C4F2422700203866FFF739FD022DE3
:101EA00005460DD13068800140F1D680FFF730FD46
:101EB000401B02284FF00300F4D902B0BDE8F081C6
:101EC000306880014FD5FFF723FD401B02284FF0FB
:101ED0000300F5D9F1E700BF40F20C00C2F20000A8
:101EE000006844F6D351C1F26201A0FB0101480A27
:101EF000019000BF00BF0198411E002801913FF4EE
:101F00000BAF00BF0198411E002801913FF404AFC0
:101F100000BF0198411E002801913FF4FDAE00BFB3
:101F20000198411E00280191E4D1F5E600210160ED
:101F3000FFF7EEFC054600BF306880077FF5E9AE8D
:101F4000FFF7E6FC401B02284FF00300F4D9B4E78A
:101F50007068216A00F480328A4209D1616A00F413
:101F60007010884204D1002002B0BDE8F08100BFAB
:101F7000012002B0BDE8F081306A20F0010030623B
:101F8000306A20F004003062FFF7C2FC054641F2DF
:101F9000883700BF306A800722D5FFF7B9FC401BA5
:101FA000B8424FF00300F5D987E700BF306A40F030
:101FB00004003062306A40F001003062FFF7A8FC94
:101FC000054641F2883700BF306A800708D4FFF722
:101FD0009FFC401BB842F7D9032002B0BDE8F08156
:101FE000B8F1000F3FF59BAEF06920F08050F06132
:101FF00095E600BF306820F480303060306820F40F
:1020000080203060FFF784FC054600BF3068800305
:102010007FF560AEFFF77CFC401B64284FF00300A7
:10202000F4D94AE7306840F480203060306840F4EA
:1020300080303060FFF76CFC054600BF30688003DD
:102040003FF548AEFFF764FC401B6428F6D9032037
:1020500002B0BDE8F08100BF206AB0F5803F05D135
:102060007168A26821F40031114371607168626A7D
:1020700021F4741111430843706001203866FFF7A2
:1020800047FC0446306880013FF56DAFFFF740FC28
:10209000001B02284FF00300F4D90EE7411E002078
:1020A000B0EB116F1CBF012070474EF21002CEF250
:1020B000000251604EF62351CEF20001F0230B7066
:1020C0000721906011607047704700007047000062
:1020D000B0B582B0044600680168C368426901F087
:1020E0002F05202D03F0200506D12DB1204602B08A
:1020F000BDE8B04000F0C0BC5FEA017C1EBF02F04A
:10210000010E03F4907212EB0E0243D1226BCD0646
:1021100018D5012A16D113F0100213D00021019115
:1021200001680191416801910199406940063BD4E1
:10213000A08DE18DE28D002A18BF884240F0F28127
:1021400002B0B0BD0A0640F1E78013F0800200F053
:10215000E38094F841102129F2D1A168B1F5805FA4
:1021600003D12169002900F06382216A4A1C22629E
:1021700009784160E18C01390A04E184E0D1C16849
:1021800021F08001C160C16841F04001C16002B02E
:10219000B0BD00BFCA0718BF13F4807240F0D080F2
:1021A0004A0700F1D380D8E0E06B016849688AB241
:1021B000002AC5D0A38D9A42C2D2E1858069202829
:1021C00000F09E80206850E8030F216820F48070A2
:1021D00041E80302DAB1206850E8030F216820F4D7
:1021E000807041E8030292B1206850E8030F216833
:1021F00020F4807041E803024AB1206850E8030FE0
:10220000216820F4807041E80302002ADAD12068B6
:1022100050E8050F216820F0010041E80502C2B333
:10222000206850E8050F216820F0010041E8050210
:102230007AB3206850E8050F216820F0010041E8DA
:10224000050232B3206850E8050F216820F0010034
:1022500041E80502002ADAD11BE000BF206850E8FF
:10226000050F216820F0400041E80502DAB120683E
:1022700050E8050F216820F0400041E8050292B1C6
:10228000206850E8050F216820F0400041E8050271
:102290004AB1206850E8050F216820F0400041E86D
:1022A0000502002ADAD1202084F8420000202063B1
:1022B000206850E8030F216820F0100041E8030275
:1022C000DAB1206850E8030F216820F0100041E8DF
:1022D000030292B1206850E8030F216820F010003B
:1022E00041E803024AB1206850E8030F216820F05A
:1022F000100041E80302002ADAD1E06BFFF782F90F
:1023000002206063A08DE18D401A81B2204602B0A8
:10231000BDE8B040FFF7D8BE49067FF511AF13F016
:1023200040013FF40DAFC16821F04001C1602021A0
:10233000204684F8411002B0BDE8B04000F076BB02
:10234000626C42F0010262644A0706D5BEF1000FDA
:1023500003D0626C42F0020262648A0706D5BEF1C5
:10236000000F03D0626C42F004026264BCF1000F03
:1023700006D55EEA050203D0626C42F00802626490
:10238000626C002A3FF4DCAE890604D51DB12046FC
:1023900000F072FB20684069616C00F0400001F0C1
:1023A0000801401800F0B680206850E8030F21684B
:1023B00020F4907041E80302BAB3206850E8030F9C
:1023C000216820F4907041E8030272B3206850E85D
:1023D000030F216820F4907041E803022AB32068BB
:1023E00050E8030F216820F4907041E80302002AAE
:1023F000DAD11AE0206850E8050F216820F00100CA
:1024000041E80502DAB1206850E8050F216820F0A4
:10241000010041E8050292B1206850E8050F2168EB
:1024200020F0010041E805024AB1206850E8050F9C
:10243000216820F0010041E80502002ADAD1206B72
:10244000012824D1206850E8030F216820F01000F3
:1024500041E80302DAB1206850E8030F216820F058
:10246000100041E8030292B1206850E8030F216890
:1024700020F0100041E803024AB1206850E8030F41
:10248000216820F0100041E80302002ADAD1202060
:1024900084F842000020206320684069400640F133
:1024A000C180206850E8050F216820F0400041E815
:1024B0000502DAB1206850E8050F216820F04000DD
:1024C00041E8050292B1206850E8050F216820F02C
:1024D000400041E805024AB1206850E8050F216834
:1024E00020F0400041E80502002ADAD1E06B002824
:1024F00000F0988042F66D21C0F600014163FFF7BD
:10250000A5F800283FF41CAEE06B416B02B0BDE8BB
:10251000B04008472046FFF7D9FD0020606402B0B4
:10252000B0BD00BF401A00BF216851E8031F2268F8
:1025300021F4907142E80313BBB3216851E8031FF3
:10254000226821F4907142E8031373B3216851E8C3
:10255000031F226821F4907142E803132BB3216812
:1025600051E8031F226821F4907142E80313002B05
:10257000DAD11AE0216851E8051F226821F0010133
:1025800042E80513DBB1216851E8051F226821F0FC
:10259000010142E8051393B1216851E8051F226843
:1025A00021F0010142E805134BB1216851E8051FF4
:1025B000226821F0010142E80513002BDAD1202125
:1025C00084F8421000212163216851E8031F22682A
:1025D00021F0100142E80313DBB1216851E8031F29
:1025E000226821F0100142E8031393B1216851E8F9
:1025F000031F226821F0100142E803134BB1216848
:1026000051E8031F226821F0100142E80313002B58
:10261000DAD1022281B22046626302B0BDE8B04046
:10262000FFF752BD204602B0BDE8B040FFF74EBDF7
:10263000216A31F8022B6FF35F224260216299E533
:10264000002804BF0120704710B5044690F84100EF
:1026500028B9002084F84000204600F063F82420C8
:1026600084F841002068D4E90212C36823F40053BF
:10267000C360036923F440531A430261D4E904237D
:102680001143C268194341F20C639A431143C1607C
:102690004169A26921F44071114343F60002C4F27A
:1026A00001029042416103D0FFF7D0FA02E000BF7F
:1026B000FFF7E0FAD4E90023192148439900B0FB61
:1026C000F1F048F21F5CC5F2EB1CA0FB0C314FF699
:1026D0009C734909C0F6FF7301FB0300322303EB2F
:1026E0000010A0FB0C03F02000EA531000EB0110D7
:1026F000C3F34311084490601069202120F49040F6
:102700001061506920F02A005061D06840F40050F8
:10271000D0600020606484F8411084F84210606347
:1027200010BD000070B586B040F60004C4F201048C
:10273000006804F5405100268842049602D006B095
:1027400070BD00BF41F21800C4F20200016802AD82
:1027500041F480410160016801F4804101910199D7
:10276000016841F0040101600068294600F004009E
:10277000019001984FF40070029002200390032012
:1027800005902046FEF7BCFF4FF48060CDE90206BD
:10279000204629460496FEF7B3FF2520002100229B
:1027A000FFF736F92520FFF721F906B070BD0000CC
:1027B000704700002DE9F04381B0044690F84100D5
:1027C000202840F0B180884600294FF0010000F039
:1027D000D6801646002A00F0D280002060642120B6
:1027E0001D4684F84100FFF793F8A684E684A168AB
:1027F0000646B1F5805F03D12069002800F098807B
:1028000047464FF00008E18C2068002900F09680D0
:1028100005F101090BE000BF47B317F8011B416048
:10282000E18C0139E184E18C002900F087800168A6
:102830000906F1D4B9F1000F0AD0EDB1FFF768F83D
:10284000801BA84218D8206801680906F6D5E3E77E
:1028500001680906E0D4016809065CBF01685FEA07
:102860000161D9D401680906F2D5D5E738F8021B11
:1028700000276FF35F21D2E7206850E8030F21683B
:1028800020F4D07041E80302BAB3206850E8030F87
:10289000216820F4D07041E8030272B3206850E848
:1028A000030F216820F4D07041E803022AB32068A6
:1028B00050E8030F216820F4D07041E80302002A99
:1028C000DAD11AE0206850E8050F216820F00100F5
:1028D00041E80502DAB1206850E8050F216820F0D0
:1028E000010041E8050292B1206850E8050F216817
:1028F00020F0010041E805024AB1206850E8050FC8
:10290000216820F0010041E80502002ADAD12020E8
:1029100084F8410084F84200002084F8400003203D
:1029200001B0BDE8F08300BF022001B0BDE8F08334
:102930000027E18C206800297FF46AAF016849060E
:1029400019D4FDB1691C0DD10168490613D4016881
:1029500049065CBF01685FEA41610CD40168490621
:10296000F2D508E0FEF7D4FF801BA8420AD8206801
:1029700000684006F6D5202084F84100002001B010
:10298000BDE8F083206850E8030F216820F4D07080
:1029900041E80302002A3ED0206850E8030F216876
:1029A00020F4D07041E80302AAB3206850E8030F76
:1029B000216820F4D07041E8030262B3206850E837
:1029C000030F216820F4D07041E80302002AD9D116
:1029D00021E000BF206850E8050F216820F00100C9
:1029E00041E80502002A3FF492AF206850E8050F45
:1029F000216820F0010041E80502002A3FF487AF7A
:102A0000206850E8050F216820F0010041E8050228
:102A1000002A3FF47CAF206850E8050F216820F0C1
:102A2000010041E80502002AD4D170E77047000098
:102A3000FEE700000021C4F22811002804BF002195
:102A4000C4F2A411012804BF4CF6CD41C4F24A21BE
:102A500008467047FEE70000FEE7000070470000F0
:102A600070470000FEF75ABF70470000406A00211F
:102A7000C185C184FFF72ABB81B090F8421022299A
:102A800021D183680246B3F5805F09D152F8281F2F
:102A900052F8183C002B63D003685B680AE000BF63
:102AA00052F8281F13B90369002BF5D003685B683F
:102AB00003F07F030B70116801311160C18D013982
:102AC0000A04C18502D001B0704700BF0168CA681E
:102AD00022F02002CA60CA6822F48072CA604A6981
:102AE00022F001024A61202180F842100021416356
:102AF000026B012A3CD10163016851E8031F02689F
:102B000021F0100142E80313DBB1016851E8031F13
:102B1000026821F0100142E8031393B1016851E803
:102B2000031F026821F0100142E803134BB1016852
:102B300051E8031F026821F0100142E80313002B43
:102B4000DAD101680A68D20606D5002200920A6826
:102B50000092496800910099818D01B0FFF7B4BAE5
:102B6000026852686FF35F2221F8022B8162A5E7A9
:102B700001B0FFF71DBE000040F2D800C2F2000015
:102B8000FFF7A6BAFEE70000F0B58BB043F2CE71B6
:102B9000C0F60001FDF7A4FB002500B343F2CE749C
:102BA000012101AEC0F600040F46E9B246F821004B
:102BB00000202146FDF794FB0135002807F10101B3
:102BC000F2D128060AD0043EFFB20BA456F8041F27
:102BD000204600F0ADF8013FF8D100E00025019853
:102BE00006A1FDF7C9FB08B10BB0F0BDE9B201A821
:102BF00000F008F80BB0F0BD25730A006765747427
:102C0000656D7000012903D817A000F091B800BFCE
:102C100002290FD180B54068FDF754FBC0B2FFF721
:102C200009FF00F0CBFC02460AA00B46BDE880403D
:102C300000F07EB801A000F07BB800BF746F6F2079
:102C40006D756368206172672C617267203D202575
:102C50006400000074656D70657261747572652042
:102C60003D20256600000000646F6E277420656EAD
:102C70006F756768206172672C20617267203D2044
:102C80002564000090B0FEF757FE06AC201D2421FD
:102C9000FDF74BFB0220069001200A9010200B90BC
:102CA000002520460D95FEF7F9FF28B1EFF31080BF
:102CB00072B600BFFEE700BF0F20CDE9010501A8F5
:102CC0000021CDE903550595FEF7DEFE20B1EFF3B7
:102CD000108072B6FEE700BF41F21800C4F2020095
:102CE0000168002341F004010160006843F600011F
:102CF00000F004000690069840F2D800C2F20000EE
:102D0000C4F201010C254FF4E13280E80E00C0E965
:102D10000333C0E90553C361FFF792FC20B1EFF321
:102D2000108072B6FEE700BF00F022F8FCE700005A
:102D300083B0B0B59BB084461FA802AC0EC01FAADA
:102D4000204661460192FDF7ABFA40F22010C2F234
:102D5000000005682046FDF7C9FA82B228462146E0
:102D60006423FFF727FD1BB0BDE8B04003B07047F8
:102D700010B540F27004C2F200046078002808BF69
:102D800010BD2178A01CFFF7FFFE0020208010BDA1
:102D90005FEA400C08BF91F0000F4FEA8C234FEA26
:102DA000C12243EA51514FEA1C5018BF00F5F040D0
:102DB0004FEA300018BF41F000415FEA6C5C00F060
:102DC0002980BCF1FF3F08BF40F080407047130CE2
:102DD00006BF12044FF0100C4FF0000C130E04BF8E
:102DE00012020CF1080C130F04BF12010CF1040CB9
:102DF000930F04BF92000CF1020CD30F04BF5200DA
:102E00000CF1010C11464FF00002A0F11F00A0EBE5
:102E10000C00704711F0004F08BF704731F00041BF
:102E20003FF4D5AF0B0C06BF09044FF0100C4FF068
:102E3000000C0B0E04BF09020CF1080C0B0F04BFB1
:102E400009010CF1040C8B0F04BF89000CF1020C7A
:102E5000CB0F04BF49000CF1010CCCF1200322FA86
:102E600003F341EA030102FA0CF2A0EB0C0000F1BB
:102E70000100704723F07F4720F07F4C80EA030079
:102E800000F00040ACEB070303F57C5303F1FF03B4
:102E90002DE9804909B44FEA144324EA03484FEA74
:102EA000154B25EA0B4E0FF2042606EB13273E784E
:102EB00003FB0667C7F5000707FB06F64FEAD64691
:102EC00006F102064FEA543707FB066CCCF1005CB2
:102ED0004FEA1C472CEA074C0CFB06F507FB06F4EF
:102EE00004EB15464FEA961649085FEA320234BFF2
:102EF00000204FF000404FEAD13706FB07FC4FEAB5
:102F00001C4C0CFB0BF7D21B03FB0CF761EB07010E
:102F10000CFB0EF7B0EB074072EB17420CFB08F707
:102F200034BFA2EB0742B2EB074261EB17414FEA15
:102F30000C444FEA910706FB07FC4FEA1C4C0CFBC4
:102F40000BF7B0EBC74072EB573203FB0CF734BF03
:102F5000A2EBC742B2EBC74261EB57310CFB0EF755
:102F6000B0EBC70072EB57720CFB08F734BFA2EB53
:102F7000C702B2EBC70261EB57714FEA816141EAC8
:102F800092114FEA826242EA90124FEA806004EBAB
:102F9000CC04039F4FEAD13706FB07FC4FEA1C4CD9
:102FA0000CFB0BF7D21B03FB0CF761EB07010CFBCF
:102FB0000EF7B0EB074072EB17420CFB08F734BF7B
:102FC000A2EB0742B2EB074261EB17414FEA8C5587
:102FD00004EB9C244FEA910706FB07FC4FEA1C4CCC
:102FE0000CFB0BF7B0EBC74072EB573203FB0CF74F
:102FF00034BFA2EBC742B2EBC74261EB57310CFBC7
:103000000EF7B0EBC70072EB57720CFB08F734BF3A
:10301000A2EBC702B2EBC70261EB57714FEA8161C5
:1030200041EA92114FEA826242EA90124FEA8060CE
:1030300015EB4C2544F100044FEAD13706FB07FCA1
:103040004FEA1C4C0CFB0BF7D21B03FB0CF761EB9C
:1030500007010CFB0EF7B0EB074072EB17420CFBBD
:1030600008F734BFA2EB0742B2EB074261EB17410E
:103070004FEA813141EA92414FEA823242EA90427C
:103080004FEA80304FEA0C7615EB1C1544F1000432
:1030900048EA03434EEA0B484FF0000EB2EB080C2F
:1030A00071EB030724BF624639464EEB0E0E4FF01C
:1030B000000B0018524149414BEB0B0BB2EB080CD3
:1030C00071EB03077BF1000B24BF624639464EEBE0
:1030D0000E0E4FF0000B0018524149414BEB0B0B09
:1030E000B2EB080C71EB03077BF1000B24BF6246C7
:1030F00039464EEB0E0E51EA020718BF46F00106A4
:1031000016EB0E7655F1000254F1000103D5BDE82F
:103110008901BDE80088BDE88901BDE80048B6190D
:10312000524141EB0101A3F10103704780807F7E92
:103130007D7C7B7A7978777676757473727171702D
:103140006F6E6E6D6C6C6B6A6A69686867666665DF
:103150006464636362616160605F5F5E5E5D5D5C6D
:103160005C5B5B5A5A5959585857575656555555DE
:103170005454535352525251515050504F4F4F4E3E
:103180004E4D4D4D4C4C4C4B4B4B4A4A4A4949498C
:1031900048484847474747464646454545444444CE
:1031A0004443434343424242424141419C46002BF7
:1031B00030D477002BD04FEA37071CB503B44FF05B
:1031C00010004FF01001BAF1000F06D0BCF1000F53
:1031D000DCBF40F0080040F008014FF000000FBCD9
:1031E000BDE810400BF1010BBBF1010F08BF5FEA16
:1031F000170722BF12F1010211F101014FF0004146
:1032000043F1000300F0004043EA00007047F9D3A7
:103210005708D0E746EA06464FEA164613F1400F34
:103220001FDD13F1200FDFBF16430A4600212033B4
:103230005B42BED0C3F1200746EA06464FEA164677
:1032400002FA07F746EA070622FA03F2C3F120075B
:1032500001FA07F742EA070221FA03F14FF00003EF
:10326000A7E746EA020646EA06464FEA164646EA57
:103270000106BCBF46EA0646360C4FF000034FF08D
:1032800000024FF0000194E72DE9804C70B49A469B
:10329000934691E8380007C831EA400C48BF34EA49
:1032A000430C03D5FFF7E6FDFFF780FFF0BCBDE858
:1032B000008C2DE9804C70B49A46934691E8380012
:1032C00007C810F0804F08BF13F0804F03D100F003
:1032D00005F8FFF76BFFF0BCBDE8008C20F07F47DE
:1032E00023F07F4C80EA030000F0004007EB0C0362
:1032F000A3F57C53A3F1FE0392F0000F00F0B3801E
:1033000095F0000F00F077802DE901494FEA114058
:1033100021EA00484FEA144624EA064700FB06FC6F
:1033200008FB06F607FB08F818EB06484CEB164CB2
:1033300000FB07F718EB07484CEB17404FEA124B1E
:1033400022EA0B4E4FEA154625EA06470BFB06FC20
:103350000EFB06F607FB0EFE1EEB064E4CEB164C64
:103360000BFB07F71EEB074E4CEB174B18EB0B084C
:1033700040F1000018EB0E0B58EB000840F1000084
:103380008F1A4FF000014FF000063CBFC943661B87
:1033900014BFB5EB040C00213CBFC943F61B4FEA38
:1033A000174427EA04454FEA1C472CEA074C04FB64
:1033B000076205FB07F70CFB05F616EB074642EB29
:1033C000174204FB0CFC16EB0C4642EB1C421BEBB9
:1033D000060658EB020241414EEA8E0E46EA9E0670
:1033E00001D5BDE80189B619524141EB0101A3F1B4
:1033F0000103BDE801894FEA144524EA05464FEA76
:10340000114721EA074C05FB07F406FB07F70CFB05
:1034100006F111EB074144EB174405FB0CFC11EBE3
:103420000C4144EB1C444FEA124722EA074C05FBCF
:1034300007F206FB07F70CFB06F616EB074642EB16
:10344000174205FB0CFC16EB0C4642EB1C456A18B8
:1034500054F1000148BF7047B619524141EB0101D8
:10346000A3F10103704795F0000F37D04FEA1142E6
:1034700021EA02464FEA144724EA074C02FB07F10F
:1034800006FB07F70CFB06F414EB074441EB17416E
:1034900002FB0CFC14EB0C4441EB1C414FEA1547BA
:1034A00025EA074C02FB07F506FB07F70CFB06F6BF
:1034B00016EB074645EB174502FB0CFC16EB0C46DA
:1034C00045EB1C42121951F1000148BF7047B61973
:1034D000524141EB0101A3F1010370474FEA14454A
:1034E00024EA05464FEA114721EA074C05FB07F19C
:1034F00006FB07F70CFB06F212EB074241EB174104
:1035000005FB0CFC12EB0C4251EB1C414FF000068A
:1035100048BF7047921841EB0101A3F101037047C6
:10352000490050EAC12018BF04204A0D18BF40F0DE
:10353000010040F2FF72B2EB515F08BF40F00200A1
:10354000012808BF0520704730380A2801D2012021
:10355000704700207047000010B500290AD0087895
:10356000002807D005487844FCF706FF002801D062
:10357000002010BD0248784410BD00008A020000FF
:103580008202000010B500290AD00878002807D070
:1035900005487844FCF7F0FE002801D0002010BD5B
:1035A0000248784410BD00006E030000660300006E
:1035B0000808A0F500114FEA3101704743004FEAB7
:1035C000D30C4FEA3C0C43401FBF40070CF1605145
:1035D00013F0FE4F70471CF0006F03D10CF0004158
:1035E000002070470CF0004343EA507040EACC00E2
:1035F00010B500F00EF800BF000000924FEA000185
:10360000FFF7D6BF4FF00041A1F500214FF00000B9
:1036100070470EF1020E2EF0030E5EF8044B2442AA
:1036200004D44FEA4102B2F17F4F11D84FEA400370
:10363000B3F17F4F0CD80ED14FEAD07C0CEB4C0C81
:103640000CF1020CB2F17F4F08BF4CEBD17C04E0CF
:103650004FF0080C01E04FEAD17C0CEB4C0324FA4C
:1036600003F404F00704B4F1040C06D20EEB840C4E
:10367000BDE810404CF0010C6047DFE80CF0070893
:1036800002024FF00040A0F5800010BD0846420045
:1036900018BFD2F1807288BF00F0004010BDFDF766
:1036A00041BBFDF775BC00000000000000000000F9
:1036B0003031323334353637383941424344454668
:1036C0004030580030313233343536373839616262
:1036D0006364656640307800040000080000000064
:1036E0000000000200010000103031323334353662
:1036F000373839616263646566787000303132331F
:103700003435363738394142434445465850000035
:1037100002400000000000A0000000000540000082
:10372000000000C8000000000C4000000000409CA9
:1037300000000000194000000020BCBE0000000096
:1037400034400000BFC91B8E00000004B5400000DB
:10375000504BCFD06607E2CF010000006C41000063
:103760003E8251AADFEEA73401000000D9420000DA
:10377000DCB5A0E23A301F97FFFFFFFFB445000021
:10378000FD25A0C8E9A3C14FFFFFFFFFFF3F0000D9
:103790000000008000000000FF3F000000000080EB
:1037A000000000000000000000000000010203040F
:1037B00006070809000000000102030401020203D9
:1037C0000405060708090A0B0C0D0E0F1010200047
:1037D00020390008000000201000000050010008FF
:1037E00030390008100000201807000070010008A0
:1037F0001001000043000000F8FFFFFF00404040C0
:1038000040404040404041414141414040404040B3
:10381000404040404040404040404040400502025F
:10382000020202020202020202020202022020201E
:10383000202020202020200202020202020290907A
:103840009090909010101010101010101010101078
:1038500010101010101010100202020202028888CC
:1038600088888888080808080808080808080808D8
:1038700008080808080808080202020240000000C0
:103880000000000000000000000000000000000038
:103890000000000000000000000000000000000028
:1038A0000000000000000000000000000000000018
:1038B0000000000000000000000000000000000008
:1038C00000000000000000000000000000000000F8
:1038D00000000000000000000000000000000000E8
:1038E00000000000000000000000000000000000D8
:1038F00000000000000000000000000000000000C8
:103900001C00000043000000F8FFFFFF0C00000057
:103910000E0000000F0000002E000000000000005C
:103920000000000001000000100000000024F4006E
:04000005080000ED02
:00000001FF
